:020000022000DC
:1070000000000220757302005D7302005F730200CE
:1070100061730200637302006573020000000000E8
:107020000000000000000000000000006773020084
:1070300069730200000000006B7302006D730200B0
:10704000799402006F730200159902006F730200B9
:107050006F7302006F730200999702006F73020052
:107060006F7302006F7302006F7302006F73020090
:107070006F7302006F7302006F7302006F73020080
:107080006F7302001D8702006F7302006F730200AE
:107090006F7302006F73020015AA02006F73020083
:1070A0006F7302006F7302006F7302006F73020050
:1070B0006F7302006F730200000000000000000008
:1070C0006F7302006F7302006F7302006F73020030
:1070D0006F7302006F7302006F7302006F73020020
:1070E0006F730200000000000000000000000000BC
:1070F000000000006F730200000000006F730200C8
:10710000000000000000000000000000000000007F
:10711000000000000000000000000000000000006F
:10712000000000000000000000000000000000005F
:10713000000000000000000000000000000000004F
:10714000000000000000000000000000000000003F
:10715000000000000000000000000000000000002F
:10716000000000000000000000000000000000001F
:10717000000000000000000000000000000000000F
:1071800000000000000000000000000000000000FF
:1071900000000000000000000000000000000000EF
:1071A00000000000000000000000000000000000DF
:1071B00000000000000000000000000000000000CF
:1071C00000000000000000000000000000000000BF
:1071D00000000000000000000000000000000000AF
:1071E000000000000000000000000000000000009F
:1071F000000000000000000000000000000000008F
:10720000354936480A1A02D0072291438D4634493F
:1072100034480A1A06D00722914381F309880222D2
:1072200082F3148830483149314A00F044F831483B
:107230003149324A00F03FF831483249324A00F0D1
:107240003AF832483249334A00F035F83248334987
:10725000334A00F030F833483349344A00F02BF811
:1072600033483449344A00F026F83448344900227F
:1072700000F02CF833483449002200F027F8334856
:107280003349091A082902DB002202604160314AB1
:1072900090471F481F49884205D00268043003B454
:1072A000904703BCF7E700208646EC46002000210B
:1072B000294A9047FEE7884207D0521A05D0037842
:1072C00001300B700131013AF9D17047884202D088
:1072D00002700130FAE770470000022000F8012038
:1072E000000002200000022078BD0200E82A0020F1
:1072F000A82B0020D0730200D0730200ECAF020074
:1073000078BD0200E82A0020E82A0020C0B0020070
:10731000C0B00200C0B00200C0B00200C0B00200A5
:10732000C0B00200C0B00200C0B0020078BD0200D0
:1073300038BE0200A82B0020A82B0020A82B00207C
:107340009C3600209C3600209C3600209C36002075
:107350009C3E00209D730200DD9D0200FEE7FEE7DB
:10736000FEE7FEE7FEE7FEE7FEE7FEE7FEE7FEE7F5
:1073700000F002B8FFF7FCBF0F484FF00701884349
:1073800085460E4880470E48016841F4700101604F
:10739000BFF34F8FBFF36F8FFFF732BF09480A4922
:1073A0000A4A884207D0521A05D0037801300B7080
:1073B0000131013AF9D1704700000220F18F02003B
:1073C00088ED00E0C0B00200E82A0020E82A002092
:1073D0007047000007B5044B0093044A402300F0B7
:1073E00032F803B05DF804FBF1730200A92B002012
:1073F0002DE9F84388461446B2B10F4B0F4E0325D2
:10740000002743F00109224608EB0701002002F0A3
:1074100081FE0744241A48B933782BB14FF47A40DF
:10742000C847013D02D13570BDE8F88301233370B0
:10743000002CE8D1F8E700BFC0B00200A82B002064
:10744000704702F097BEF0B595B01D461646084647
:107450000C4601F011FD1A9B0D93CDE9086500253E
:107460002B46082205A920460A958DF82C500C952C
:1074700001F01EFD079B0293069B03939DF81430B9
:107480008DF8115003F00302012A1DD1BDF814201C
:10749000059DC3F3C203C2F383168DF81030B2000A
:1074A00008230EA9204601F003FDC5F3952508AB7E
:1074B0000093324602AB0EA9284600F033FB20466B
:1074C00001F0DEFC15B0F0BD022AF8D1BDF816506F
:1074D000C3F3C203C5F389158DF810300827082DB2
:1074E0002E4628BF08263B4632460EA9204601F00C
:1074F000DFFCAD1B08AB02AA31460EA8374400F0F2
:1075000075FB002DEBD1DAE708B5FFF79AFF0448C9
:10751000042100F071FA034B01225A7108BD00BF2B
:10752000B0B00200E82A0020037813F0040216D05D
:1075300003F00303012B03D0022B09D00120704775
:107540000A6800880232C0F3831002440A60F5E73B
:107550000B684288023303EB92130B60EEE7104690
:10756000704700002DE9F04FDFF81CA187B00F46EF
:1075700000230446861C0DF1070015468DF80730E0
:1075800000F05EFFDAF804203A60DAF8083003F51C
:1075900080739B1A0AF21C470AF583690AF21448A1
:1075A000B3421AD30020002D69D004F00F039B01D1
:1075B00043F0050363F30F00DAF80430DAB2033264
:1075C00033444AF822009DF80700CAF8043000F05E
:1075D0005BFF012007B0BDE8F08F0121384601F0C4
:1075E0007AF9484601F08FF9404601F08CF9DAF853
:1075F00008000290C0B203300AEB800002A9FFF736
:1076000093FF029B30BBDAB20AEB8202D16803918E
:107610009A1C0133DBB20AEB83030292D3F80CB05D
:1076200001F00303012B22D0022B15D083464046E4
:1076300001F06CF910B1029BCAF80830594638467F
:1076400001F049F9DAF80830DAF8042003F580731C
:107650009B1AA5E7D8B2CEE7BDF80E30C3F3891365
:1076600003334FEA1B4B02EB93030293DFE7BDF8B2
:107670000C30C3F383134FEA1B4B1344F5E7A40507
:1076800044F0060098E700BFBC2C0020064B0748DA
:1076900010B500221A7001F0A8FB044610B9044886
:1076A00001F026FC204610BDBC2C002024B00200B6
:1076B000FCB0020030B50A4C71B10A4A0A49121BEB
:1076C000D20800239A4201D1002030BD31F8235066
:1076D000854202D00133F5E7034654F83300F4E75E
:1076E00038B00200B0B00200E82A0020094B01398E
:1076F00003EBC000032909D8DFE801F00A02040601
:107700000420704700797047407970470020704727
:107710000220704738B0020070470000034BD3E9E5
:107720000130C31A58425841704700BFBC2C00209A
:107730002DE9F04186B0FFF7F1FF0546002840F043
:10774000ED80774CC4F81804BFF34F8FA368029301
:10775000DBB2033304EB830002A9FFF7E5FE029BD3
:1077600018B1D4F81824002A5AD0DAB2991C01337F
:1077700004EB8202DBB204EB8303D268DB68049380
:1077800002F00303022B0392029154D1BDF80E3094
:107790006448C3F38917502F3E4628BF502606F190
:1077A000080166F38F13C1F30901ADF80E3001F043
:1077B00034FB0546002800F09C8001F05DFB0023AF
:1077C000082203A9284601F069FB0299CB43DBB2EA
:1077D0000133C9B20331B6EB830F4FEA830204EBE6
:1077E000810125D95FFA82F80823A6EB080628460E
:1077F00001F054FBF6B208F108034B4903F0FC0317
:107800003246284601F04AFB029B033703EB9707F9
:107810000297D4F81834002B43D1D4F8106453E005
:1078200062689A4294D8A260284606B0BDE8F0810A
:1078300008233246E5E7012B5BD1BDF80C3039480F
:10784000C3F38311062928BF062161F3891302318E
:1078500001F00F018900ADF80C3001F0DEFA0546A9
:10786000002846D001F008FB0023082203A928467F
:1078700001F014FB0026BDF80C20C2F38312B30004
:10788000964203F10803C4D202994A1CC9B20331DB
:10789000029204EB81010422284601F0FFFA01362E
:1078A000E9E7284601F0ECFAFFF738FF80F0010025
:1078B000C5B2B9E7F3685B7923B1336829461B6821
:1078C00030469847F3681E68002EF3D1284601F031
:1078D000D7FA0DF107008DF8076000F0B1FDD4F87C
:1078E00018340BB9029BA3609DF8070000F0CCFD93
:1078F000DAE7D4F8104454B90C4B0D480D49C01ABE
:10790000C008000440F0020000F05EF8CCE72368F5
:1079100020469B689847E3681C68ECE7002583E7EE
:10792000BC2C002024B00200C82C002038B002007B
:1079300060B00200E4B002002DE9F34704460E46B1
:10794000924601A9012218469946FFF70BFE1C4FEB
:1079500010B3019D4FF00008AA1CC84508EB0201B6
:1079600025D11848002100F087FF80F310000004A3
:1079700040EA1440E4006B1C04F03804DBB2EDB2C2
:1079800044F0010407EB8303033544EA881444EA16
:107990008624D86047F825403B781BB1FFF7C8FE26
:1079A0000028FBD1FFF7B8FE02B0BDE8F087C9B2EE
:1079B00007EB81015AF82830CB6008F10108CCE7C9
:1079C000BC2C0020D830002000231A46FFF7B4BF9B
:1079D00007B50123019201AAFFF7AEFF03B05DF8DE
:1079E00004FB07B5CDE9002302236A46FFF7A4FF95
:1079F00003B05DF804FB000030B50F4CD4F8102440
:107A000003460020114631B9D96808714AB9C4F853
:107A100010340A6030BDC9680D79854206D0096806
:107A2000F1E7D26814680C601360F3E701300A28AC
:107A3000E8D14FF0FF30EDE7BC2C002038B5084B03
:107A40000125D3F810441D7004B938BDE3685D7199
:107A5000236820465B689847E3681C68F4E700BF2A
:107A6000BC2C002030B5C38885B004460D4633B128
:107A7000144A00921449154A284600F0AAFF217AB8
:107A800005291DD0637A4BB1A088FFF72FFE104B5C
:107A9000104953F82020284600F09BFF227A0E4B15
:107AA000A08853F8222003920021FFF703FE039AD7
:107AB0000A490346284605B0BDE8304000F089BFBA
:107AC00005B030BD28B1020010B1020008B10200BB
:107AD00094B102002DB10200B8B1020030B1020031
:107AE00007B503460846197A052911D05B7A2BB1F0
:107AF000094A0A49019000F06CFF01980849019079
:107B000000F067FF019803B05DF804EB00F056BF8A
:107B1000002AF8D0F2E700BF28B102002DB1020020
:107B2000E7B702002DE9F04385B01F460C9D002306
:107B300095F80C902B7306460C469046294638461D
:107B4000FFF790FFB8F1060F09D8DFE808F004123C
:107B5000181F283340003146284600F03AFF002223
:107B600029463846FFF7BCFF85F80C9005B0BDE804
:107B7000F08322683146284600F02BFFEFE7D4E976
:107B800000233146284600F024FFE8E7A36800936D
:107B90003146D4E90023284600F01BFFDFE7E36805
:107BA0000193A36800933146D4E90023284600F0EE
:107BB00010FFD4E723690293E3680193A36800935D
:107BC0003146D4E90023284600F003FFC7E7636984
:107BD000039323690293E3680193A36800933146FA
:107BE000D4E90023284600F0F4FEB8E708292DE97F
:107BF000F74F80460E4617461C463CD8002593F8A2
:107C00000C901D7319461046FFF72CFFDFF888A073
:107C1000DFF888B0AE4231D918F805205946204621
:107C200000F0D7FE0135082DF4D11949194DDFF8C0
:107C300070A0204600F0CDFE4FF0000B5E4522D92B
:107C400018F80B207E2A05D81046019203F01AF985
:107C5000019A00B92E225146204600F0BAFE0BF1DF
:107C6000010BBBF1080FE9D1012221463846FFF78D
:107C700037FF84F80C9003B0BDE8F08F51462046E2
:107C800000F0A7FECEE72946204600F0A2FEE6E778
:107C900044B1020042B1020040B102003AB1020018
:107CA00046B10200C30710B507D4F023054A4008C7
:107CB000145C23401943115410BD0901C9B20F23AC
:107CC000F4E700BF8831002030B5094B1C78094B20
:107CD000196800239C4202DC0022104630BD11F8D6
:107CE0003350854201EBC302F7D00133F2E700BF06
:107CF00074310020A831002013B504460191FFF72C
:107D0000E3FF38B143682BB10199204602B0BDE8CA
:107D10001040184702B010BD034B044819680022F8
:107D2000490800F055BA00BF78310020F02A002041
:107D300010B5C0B2FFF7C8FF0446007801F01EFD81
:107D400063785A1E53425341834208D1044BD3E90E
:107D50000023134303D1BDE81040FFF7DDBF10BD82
:107D60008031002037B54308374AD35CC2074CBF87
:107D70001B0903F00F0304460D46042B25D8DFE84A
:107D800003F003262F3C4000F9B10121FFF78AFFE1
:107D900000230DF107008DF8073000F051FB0120A2
:107DA000A4F12003C4F12001284A20FA01F100FACD
:107DB00003F30B43A040D2E9004120430B43C2E947
:107DC00000039DF8070000F05FFB03B030BD002901
:107DD00018BF0221204603B0BDE83040FFF762BF64
:107DE00049B10321FFF75EFF0121204603B0BDE842
:107DF0003040FFF781BF0121ECE70029E5D10421E4
:107E0000E8E709B10321E5E7FFF74CFF29462046E3
:107E1000FFF772FF0DF107008DF8075000F010FB1F
:107E20000120A4F12003C4F12001084A20FA01F145
:107E300000FA03F30B43A040D2E9004124EA00001A
:107E400021EA0303BBE700BF883100208031002016
:107E50002DE9F041124E134F00243378A34208DC81
:107E6000114BD3E90023134318D0BDE8F041FFF7CD
:107E700053BF3D6805EBC40815F8340001F07EFCE3
:107E800098F801305A1E53425341181A4142414159
:107E900015F83400FFF766FF0134DEE7BDE8F08136
:107EA00074310020A831002080310020092AF7B564
:107EB00005460C4616463ED901F088FBE8B11F4B3B
:107EC0001F481D601F4B204F1C70204B002120229B
:107ED0001E6003F005F81E4B00200021C3E90001DD
:107EE000013CE4B20326FF2C0DD11A4A1A480021A6
:107EF00003B0BDE8F04000F059B901F021FB0028C3
:107F0000DDD003B0F0BD9DF8063015F834008DF8D3
:107F1000046005EBC40223F007038DF8063001A9C5
:107F200093788DF805303A4601F05AFB013CE4B2F3
:107F30000028D8D0E5E70720E3E700BFA8310020FC
:107F40008831002074310020317D0200783100201A
:107F500080310020517E0200D8B1020070B5084D7A
:107F6000084E00242B789C4201D3002070BD33685A
:107F7000012113F8340001F0B3FB0134F2E700BF34
:107F800074310020A83100201FB50021039001AA00
:107F900044F20100CDE9011100F004F805B05DF8EC
:107FA00004FB000038B572B6FFF748FDFFF7C0FBD1
:107FB0000028FBD1104B114C114D1249E41AE40872
:107FC000240444F00100FFF7FFFCD5F8F030DB0794
:107FD00000D500BE0C4944F00200FFF7F5FCBFF3EA
:107FE0004F8FEA68094B02F4E0621343EB60BFF382
:107FF0004F8F00BFFDE700BF38B0020060B0020045
:1080000000ED00E0DCB10200E8B102000400FA0576
:1080100010B5D0E90243D1E90202A04272EB03039A
:108020002CBF0120002010BD08B50A4800F05FFBFE
:10803000094AD2E90031C018084BD3E9002341F1C5
:108040000001904271EB030303D210F1807041F103
:10805000000108BD102B0020B03100202832002084
:1080600037B505460C460A4801A900F074FB60B11B
:108070000570446001A9064800F097FB18B1054857
:1080800000F03AFB002003B030BD0420FBE700BF46
:1080900014320020102B0020294B73B51E780446A3
:1080A0001EB90026304602B070BD0028F9D0FFF797
:1080B000BBFFD4E902239042994139D300230DF14B
:1080C00007008DF8073000F0BBF923692BB94FF09A
:1080D000FF324FF0FF33C4E902239DF8070000F0A0
:1080E000D3F9D4E90530984700250DF107008DF844
:1080F000075000F0A5F92369C3B1D4E90212B2F127
:10810000FF3F08BFB1F1FF3F05D05B1842F100020D
:10811000C4E9023235469DF8070000F0B5F9002D9C
:10812000BFD00848214600F002FFBBE71D46F2E73A
:10813000B3F1FF3F08BFB2F1FF3FB2D0F1E700BF9C
:10814000B831002004B2020013B5114B1149186870
:10815000019008231048582200F0EAFA044698B922
:108160000E4A0F4801A900F0B3F9044660B90C4863
:10817000012100F09FFA01230A4A0948194600F03C
:1081800001FA094B01221A70204602B010BD00BF4F
:1081900000B20200BC3100201432002089820200AB
:1081A000102B0020FFFF7F00B831002030B56AB1EE
:1081B00003684FF0FF344FF0FF355A614A1E5142B9
:1081C000C3E9024551411961002030BD0720FCE799
:1081D000F7B5044600250DF1070017460E468DF849
:1081E000075000F02DF9D4E90223B3F1FF3F08BF97
:1081F000B2F1FF3F07D1FFF717FF301841F100013F
:10820000C4E9020101259DF8070000F03DF955B1D0
:108210002369A76103B126612146002003B0BDE8B0
:10822000F040FFF71DBF284603B0F0BD37B5054647
:1082300000240DF107008DF8074000F001F9D5E9A1
:108240000223B3F1FF3F08BFB2F1FF3F1FBF4FF062
:10825000FF324FF0FF33C5E9022301249DF80700E8
:1082600000F012F934B12946012003B0BDE83040D6
:10827000FFF7F6BE204603B030BD0000014800F015
:1082800036BA00BF102B00202DE9F743064600F058
:1082900019FA40B1624AD2E9003113F1807341F119
:1082A0000001C2E900310021304600F01AFA38B16D
:1082B0005C4C236823B12068FFF7EEFE00232360A7
:1082C0000121304600F00DFA20B1FFF7ADFE564B0C
:1082D000C3E900015548534C01A900F076FA4FF06C
:1082E000FF384FF0FF39A0B9DFF844814D4D4046CB
:1082F00000F033FE002800F08580D0E90223B3F1BE
:10830000FF3F08BFB2F1FF3F32D1404600F01FFEF1
:10831000EDE70378012B20D0022B08D1444D2846ED
:1083200000F015FE002877D0C0E90289F7E75BB9B5
:108330004168D1E90223B3F1FF3F08BFB2F1FF3F2B
:1083400002D03B4800F0F3FD01A9384800F068FA7C
:1083500001A9364800F039FAC5E741682368994217
:1083600002D100232360EFE7314800F0F9FDEBE78D
:10837000296891B12968D1E9020182428B412FD24B
:108380002B68D3E90223B3F1FF3F08BFB2F1FF3FEF
:1083900003D02968404600F0CAFD404600F0D7FDF2
:1083A000D0E902490746FFF73FFE201A69EB0109B1
:1083B000012879F1000318DBB0F5350F13D3FFF76F
:1083C0005DFF1C4A02441C484FF49603002100F054
:1083D000F9F890B92B6813B9304600F0CBF82F604C
:1083E00003B0BDE8F0832246EDE71348002100F01A
:1083F0006EF93846FFF750FE01E00D28F9D0002352
:108400002B6074E7074B1B68002BE9D1304603B0A3
:10841000BDE8F04300F0B2B8084B01221A7093E7B0
:10842000B0310020303200202832002014320020E9
:1084300004B20200FFFFB400102B0020B83100206E
:1084400070B5EFF3108672B60C4A946801239CB99C
:1084500093600B4B0B4DD3F8801029401160C3F88B
:108460008050D3F8841051604FF0FF32C3F884205D
:10847000047006B962B670BD0370FAE734320020AA
:1084800000E100E0FC06FFBD084B9A6810B55AB148
:1084900050B9EFF3108172B6054A1C6814605C682D
:1084A0005460986001B962B610BD00BF343200203C
:1084B00000E100E0435882B03BB1002343504358F1
:1084C0000193019B012002B070471846FBE70000B2
:1084D000F8B5204B4479204E43F824201F4A204B06
:1084E00006EBC4049B1A2279DB081B0432B143F06B
:1084F00002001C49FFF768FA0820F8BD02680C88E2
:10850000C2F8084590F904508A7804795201002D88
:10851000D2B219DB14494F1987F8002301226D09E3
:1085200004F01F0402FA04F441F82540427906EBF6
:10853000C201012446F832000C7143F003000B49DC
:10854000FFF742FA0020D8E7094904F00F040A5562
:10855000ECE700BF483200204032002038B0020073
:1085600070B0020010B2020000E100E032B202007E
:1085700014ED00E0036801221A60704703680122CD
:108580005A60704773B501F15005AD000068ADB297
:108590004FF480348C400026C0F80843C0F84843AC
:1085A000465101F5A8714559019522F07F42019D80
:1085B00040F82120C0F844430BB1C0F8044302B096
:1085C00070BD00002DE9F74F0D4622F07F44026890
:1085D0004FF4803705F150068F408046B60002EB1D
:1085E0008500C2F84873B6B2C2F80873D2F8041511
:1085F00099464FF0000BD0F84035C0F8401542F8CE
:1086000006B05B1A9259009223F07F43012B009A27
:108610004FEA850A0CD1264B4FF4806043F00103EA
:108620009847D8F8003043F806B09B590193019B56
:10863000D8F80010D1F80465C1F84473A31B23F0E7
:108640007F43012B1CD11A4B05F5A875013443F06B
:10865000010341F825404FF480609847D8F8003076
:10866000D3F804359E4209D1D8F800300020C3F871
:108670004473C3F8047303B0BDE8F08F0D20FAE72C
:108680008A44C9F1FF13CAF84045D1F80405221AFB
:10869000013A22F07F4203F57F439342EED3002A52
:1086A000E2D10134CAF84045D1F804359842DAE7FE
:1086B00050B2020003680222C3F8442309B1C3F890
:1086C0000423704700684FF48271FFF7F3BE4FF444
:1086D000803303FA01F10368C3F84813C3F80813A1
:1086E000704750318900006889B2FFF7E3BE036824
:1086F000D3F804057047000090F90430002B09DB23
:108700005A09012103F01F0301FA03F34032024921
:1087100041F82230704700BF00E100E0024B034AFD
:108720001B681068184700BF483200204032002004
:1087300010B561B1B2FBF3F403FB1424A4B244B945
:10874000C0E9001484608281C381204610BD0E20E0
:10875000FCE70920FAE737B550E8013F9DB2C4892C
:1087600025448489A54228BF2D1B0489A54202BF48
:10877000BFF32F8F002207E0C5EA030540E801544C
:10878000002CE9D14FF001028DF803200193019AEA
:108790000A609DF8031001F0FF0321B1006810FA90
:1087A00082F003B030BD1846FBE70A884B889A4236
:1087B00009D150E8012FC2EA024240E80123002B10
:1087C000F7D1012070470020704737B550E8023FCD
:1087D0001FFAA3F5C488A54202BFBFF32F8F002262
:1087E0000DE0C48925448489A54228BF2D1BC3EA16
:1087F000054540E80254002CE8D14FF001028DF805
:1088000003200193019A0A609DF8031001F0FF0311
:1088100021B1006800EB124003B030BD1846FBE701
:108820000A884B889A4209D150E8022FC2EA2242B4
:1088300040E80223002BF7D1012070470020704749
:1088400001F01F024B090121914000EB830000F071
:108850001EB801F01F0301229A404B0900EB830070
:10886000D14300F02CB84B0901F01F0150F8230050
:10887000C84000F00100704710B5034653E8000FF0
:108880000A4643E8002494F0000FF7D110BD10B55C
:10889000034653E8002F42EA010043E8000494F045
:1088A000000FF6D110BD10B5034653E8000F00EAE3
:1088B000010243E8002494F0000FF6D110BD10B57A
:1088C000034653E8002F02EA010043E8000494F055
:1088D000000FF6D110BD10B5034653E8002F02EB90
:1088E000010043E8000494F0000FF6D110BD10B56C
:1088F000034653E8002FA2EB010043E8000494F084
:10890000000FF6D110BD0121FFF7C1BF0021FFF715
:10891000CABF10B590B1D0E9012301689B1ADBB240
:108920000A60013BDBB2FF2B026802D1002010710C
:1089300010BD11684C1C14600B70F2E70E20F7E7B5
:1089400037B5054600240DF107008DF80740FFF705
:1089500077FD2A686B68116899420ED9481E10602D
:1089600011F8013CEC68298A01FB0344AB681179DA
:108970001B1ADBB2994238BF13719DF80700FFF74D
:1089800083FD204603B030BD37B5054600230DF109
:1089900007000C468DF80730FFF752FD2A68136870
:1089A000591C1160E968641A298AB4FBF1F41C703F
:1089B0009DF80700FFF768FD03B030BD826810B571
:1089C00004462AB143690168006998470023A360FF
:1089D00010BD0EB403B5039921B104AB01AA0193F4
:1089E00000F076F802B05DF804EB03B070470A2996
:1089F00038B504460D4602D10D21FFF7F8FFA368F4
:108A00002268591CA160D554D4E901329A4204D39A
:108A10002046BDE83840FFF7D1BF38BD2DE9F84FFB
:108A20009846DDE90A43154682460F460A464FF04E
:108A30000109AA420FD2C14538BFC14613F0010B4C
:108A400001D16CB900240126B8F1010F1BD908F13E
:108A5000FF386E43F8E709F10109B2FBF5F2E8E7E8
:108A60009B070ED5B8F1000F0CBF30262026A1457C
:108A7000E9D2013C31465046FFF7B9FF002CF6D150
:108A8000E0E72026F3E7B7FBF6F39D42E1D9DFF8F4
:108A90003C80B7FBF6F3504618F8031006FB13773B
:108AA000FFF7A5FF3346AB42B6FBF5F6F1D2BBF1BB
:108AB000000F02D00CB1A14501D3BDE8F88F2021F1
:108AC0005046013CFFF793FFF4E700BF56B20200A7
:108AD0002DE9F74F054617468846002900F03E81EC
:108AE00018F8011B49B92B7B002B00F03781284671
:108AF00003B0BDE8F04FFFF761BF252940F0B78014
:108B0000002698F800302D2B424608F1010823D0AA
:108B1000302B24D02B2B25D000242A2B02F101014D
:108B200023D13B681A1D1B683A601C440A4613781F
:108B30002E2B26D101324FF0000A104610F8011BEF
:108B4000A1F1300CBCF1090F1DD80A2303FB0A1355
:108B5000A3F1300A0246F0E746F00106D1E746F0FD
:108B60000206CEE746F00406CBE711F8013CA3F17C
:108B700030000928DBD80A2202FB0434303C0A46C4
:108B8000CBE74FF0000A12F8011B01F0FB00682848
:108B90009046F8D0782909D86F290CD8632962D07B
:108BA00022D8252963D0582900F0888098F8003011
:108BB000002B95D197E770390829F7D801A353F80E
:108BC00021F000BF378D0200AD8B0200AD8B02009B
:108BD000CD8C0200AD8B0200AB8C0200AD8B02008D
:108BE000AD8B0200BD8C0200642901D06929DDD162
:108BF0003A68D2F80090111D89EAE9723960A2EB57
:108C0000E9724FF0010B092A35DCD34538BFD34652
:108C10002CB1B9F1000F01DB720700D5013CB3079D
:108C200002D5BAF1000F03D0F00701D44CBB0024E9
:108C3000B9F1000F2DDAC9F100092D212846FFF7FF
:108C4000D6FE06F00302022A04D1BAF1000F01D1C8
:108C50001CBB0024CDE9004653460A22494628465B
:108C6000FFF7DCFEA2E73B681A1D19783A60284638
:108C7000FFF7BDFE9AE70A230BF1010BB2FBF3F2FB
:108C8000C1E7A345D4D220212846013CFFF7AFFE1F
:108C9000CCE77107D5D52B21D0E7A345DAD2302117
:108CA0002846013CFFF7A3FED2E73968CDE900462C
:108CB0000A1D3A6053460A220968D0E739680A1D3E
:108CC0003A60CDE9004653461022F5E73B681A1D8D
:108CD0003A6016F00106D3F8009024D1B9F1000FE4
:108CE00003D0484602F051F90646B4421DD809F1B6
:108CF000FF3919F8011F00293FF458AF2846FFF744
:108D000076FEF6E728460136FFF771FE19F80610E1
:108D10000029F7D1A642BFF449AF20212846013CE3
:108D2000FFF765FEF6E70026F0E720212846013C24
:108D3000FFF75DFED9E73B681A1D3A6030212846EF
:108D40001C68FFF754FE78212846FFF750FE0022EA
:108D50000823CDE900322146102280E703B0BDE8A8
:108D6000F08F00BF2DE9F84FB0F806A04579D2F892
:108D700000B09DF828900AFB05F5043D88460BEBF2
:108D80000301A94203F1040488BFA5EB030BB4FB64
:108D9000FAF607460AFB1644C2F800B04EB9AAEB31
:108DA00004055D4528BF5D46BBF1000F04D1BDE859
:108DB000F88F3F68013EF1E7043408EB06003C44BD
:108DC0002A46B9F1000F0DD02146ABEB050B02F09E
:108DD0005EF8DA452E443F6855464FF0000428BF40
:108DE0005D46E1E701462046EFE7FFF792BDF8B5A3
:108DF00046790146721E0546002393422D6803D32F
:108E00000024A64202D8F8BD0133F6E70F682846D1
:108E1000FFF7BAFD01343946F3E72DE9F843068A36
:108E2000CD1C0746FFF78CFD043E35440446B5FBD8
:108E3000F6F5F0B14FF48073EDB28380C680013D4A
:108E4000076081464FF00008A84512D23846FFF768
:108E500077FD064648B163790133637108F1010873
:108E6000C9F8000007608146EEE72046FFF7BFFF24
:108E700034462046BDE8F88301210430FFF72BBDBE
:108E800010B5012104460430FFF731FDC0B220B90E
:108E90002046BDE81040FFF7AABF10BD1FB50392E2
:108EA0000022009203AAFFF75DFF05B05DF804FB06
:108EB0001FB503920122009203AAFFF753FF05B0EA
:108EC0005DF804FB064B10B500241C70054B1C60BC
:108ED000BFF35F8F0449054800F013F8204610BD2A
:108EE000543200205832002070B202004C32002070
:108EF000836800225A60C3E904229A60DA601A602B
:108F000070470B684A684360934208BF00230160C2
:108F100008BF43607047436843B102689168526874
:108F20000B449342436004BF00234360704770B515
:108F3000446806460D46206818B1B368294698472C
:108F400018B923682B60256070BD2468F3E7436877
:108F5000186808B102681A6070474368186870475B
:108F60004368186800B97047884203D102681A60E4
:108F70000120704703460068F4E7000010B50D4972
:108F8000A1F59472914201D800200FE08C1AE30FF2
:108F900003EBE4035B1002EBC30452F8333083426B
:108FA00005D802D204F10802ECE7606810BD214642
:108FB000E8E700BF7CB7020008B5FFF7DFFF024B10
:108FC000002808BF184608BD3FB602004FF0805386
:108FD000D3F83001A0F10D0358425841704700000A
:108FE000024AD2F80034002BFBD0704700E0014069
:108FF00010B5FFF7EBFF40B14FF080430022C3F8FC
:109000000C21C3F81021C3F83825FFF7DFFF002833
:1090100046D04FF08052514BD2F80414C3F82015BB
:10902000D2F80814C3F82415D2F80C14C3F8281584
:10903000D2F81014C3F82C15D2F81414C3F8301554
:10904000D2F81814C3F83415D2F81C14C3F840151C
:10905000D2F82014C3F84415D2F82414C3F84815E4
:10906000D2F82814C3F84C15D2F82C14C3F85015B4
:10907000D2F83014C3F85415D2F83414C3F860157C
:10908000D2F83814C3F86415D2F83C14C3F8681544
:10909000D2F84014C3F86C15D2F84424C3F87025F4
:1090A000FFF794FF48B14FF08043D3F80024D20774
:1090B00044BF6FF00102C3F80024294AD2F8883077
:1090C00043F47003C2F88830BFF34F8FBFF36F8F44
:1090D0004FF08053D3F830210D2A0ED1D3F834311C
:1090E000022B02D81F4AD35C3BB14FF01023D3F8B8
:1090F00008224FF08043C3F858254FF01023D3F8CF
:109100000022002A03DBD3F80432002B22DA1649AE
:1091100001234FF01020C1F804351224FFF760FF3F
:10912000C0F80042FFF75CFFC0F80442FFF758FFA9
:109130000023C1F80435FFF753FFBFF34F8F0849F1
:109140000A4BCA6802F4E0621343CB60BFF34F8F4F
:1091500000BFFDE7064B074A1A6010BD00C0004083
:1091600000ED00E07CB7020000E001400400FA05D9
:10917000182B00200090D003074B1B5C1F2B8ABFCD
:10918000064A4FF0A04203F01F03D2F80405D8406E
:10919000C04300F0010070477FB702000003005099
:1091A000074B1B5C1F2B86BF064903F01F034FF0C4
:1091B000A041012202FA03F3C1F80C35704700BF49
:1091C0007FB7020000030050074B1B5C1F2B86BFBC
:1091D000064903F01F034FF0A041012202FA03F3F6
:1091E000C1F80835704700BF7FB702000003005088
:1091F00008B50020FFF7E8FF0120FFF7E5FF022098
:10920000FFF7E2FFBDE808400320FFF7DDBF08B528
:109210000020FFF7C5FF0120FFF7C2FF0220FFF784
:10922000BFFFBDE808400320FFF7BABF0A4B185C38
:109230001F288ABF094B4FF0A04300F01F00D3F84E
:1092400004250121814021EA02000A40C3F80805F3
:10925000C3F80C25704700BF7FB702000003005021
:109260000B2809D00C2809D0182809D019280CBFC0
:1092700003204FF0FF3070470020704701207047F7
:1092800002207047C20710B504460CD54FF0A0432A
:109290000322C3F83427C3F83827C3F83C27C3F8A0
:1092A0004027FFF7A5FFA3070AD54FF0A0430C22E4
:1092B000C3F82C27C3F83027C3F86027C3F8642706
:1092C00010BD000038B5074C051E04F1080318BF97
:1092D0001C4623682BB11A6822605B6828469847B1
:1092E000F7E738BD6432002020B9054B01225A70DF
:1092F000FFF7E8BF012802D1014A9070F8E77047F4
:109300005C32002020B9034B01225A70FFF7DABF0C
:10931000704700BF5C32002038B50E4C2378B3B9DB
:109320000D486360A3602361E36000F075F80546B3
:1093300001F056FB08B900F07BF801232370074BBE
:10934000D3F800340BB10123A370284638BD85251E
:10935000F5E700BF5C320020E99202000000014006
:1093600037B50D4C00230DF107008DF80730FFF7DE
:1093700067F8E368013BE360E36833B9074BD3F870
:10938000005415B900F066F8A5709DF80700FFF7C6
:109390007BF803B030BD00BF5C320020000001400C
:1093A000012813B50CD0032820D038B9134B012263
:1093B000C3F88020BFF34F8FBFF36F8F02B010BD93
:1093C0000F4C00230DF107008DF80730FFF738F838
:1093D00023780BB9FFF7A0FFE3689DF8070001337E
:1093E000E3600123A370FFF74FF8E7E700F020F8F0
:1093F00002B0BDE81040FFF7B3BF00BF00E100E0DE
:109400005C32002000F18040002382B003600368DA
:109410000193019B02B07047044A137923B90121DB
:109420001060117118467047852070477032002017
:10943000074B1A68D20704D4C02283F80023012204
:109440001A604FF080430122C3F81825704700BF0F
:1094500000E100E04FF0804208B50223C2F8083373
:109460004FF48270FFF7CEFF0123D360D2F8183497
:10947000DB03FBD408BD00004FF0804210B5D2F8EA
:10948000003153B14FF48070FFF7BCFF0123C2F8E5
:1094900008330B4B00201B6898474FF08042D2F8EE
:1094A000043163B14FF48270FFF7ACFF0223C2F8BE
:1094B0000833034BBDE810401B680120184710BD5E
:1094C0007032002000F1804000F5C040002382B0DF
:1094D000036003680193019B02B0704703681F2B70
:1094E00083BF03F01F03036001484FF0A0407047A3
:1094F0000003005007B5019001A8FFF7EFFF019BA3
:1095000000EB8300D0F8003723F44033C0F8003775
:10951000D0F8003743EA0141C0F8001703B05DF806
:1095200004FB0000054B4FF0FF32072843F82020D2
:1095300084BFC01880F85220704700BF78320020E6
:1095400038B51E4C94F86430ABBB40F2FF31FF20BD
:109550005A09012A0CBF0A464FF0FF3203F01F05DB
:10956000EA40D20748BFE21803F1010348BF82F87E
:1095700030002A2BECD10021C8B20131FFF7D2FF15
:109580000C29F9D1062200210D4801F0A9FC0D4B50
:10959000C02283F8062340221A604FF4BE70FFF702
:1095A00091FF094B4FF00042C3F80423012384F8D4
:1095B0006430002038BD0820FCE700BF783200206E
:1095C000D632002000E100E000600040034B93F839
:1095D0006400003818BF0120704700BF78320020B7
:1095E000F7B53D4F3B18044693F93030002B71DA44
:1095F0008B78C3F34003002B0BBF082500250C20FC
:109600000820854202D1042003B0F0BD57F8256040
:10961000013647D138196EB247F8252080F83060FE
:1096200013B97B1983F852408B785A071AD4D8079C
:109630003AD501A80194FFF751FF019B00EB83008D
:10964000D0F8003723F00203C0F800372348E208BF
:1096500004F0070C012303FA0CF310F802C043EAEC
:109660000C03835488780B7810F0020028D0AD00EA
:1096700005F1804505F5C0452402D5F8102522F4F2
:109680004F3222F44072C5F810251B04D5F810257E
:1096900004F47C5403F440331C431443C5F81045D0
:1096A0000020B1E70135ACE701A84A780194FFF743
:1096B00015FF019B03F5E073920040F82320C5E7F6
:1096C000083E47FA86F797F85A4044EA831387F82A
:1096D0005A3099E7082097E778320020D6320020E8
:1096E00073B5244D2E18044696F93020072A1DDD47
:1096F000083A45FA82F595F85A309B09032B10D1A8
:10970000019001A8FFF7EAFE019BD0F81015D9409F
:1097100001F001010231204602B0BDE87040FFF7C0
:10972000E9BE012B0CBF02210321F4E7D3B2072BC2
:109730001DD8930003F1804303F5C043D3F810050F
:1097400040F00100C3F8100502F1400040B2800073
:1097500080B2FFF7B7FE51B196F9303055F823309B
:109760002BB1012303FA02F2034BC3F8042302B026
:1097700070BD00BF783200200060004007B5019046
:1097800001A8FFF7ABFE019BD0F81005D84000F010
:10979000010003B05DF804FB2DE9FF470024CDE98B
:1097A0000244584D4FF48072012102F1804303F5C9
:1097B000C04390B21B68012B06D1D5F804330B428D
:1097C00002D0FFF77FFE0C430432B2F5907F4FEAE0
:1097D0004101EAD14B4BD3F87C31012B11D14FF42D
:1097E000BE70FFF76FFE4FF0A04344F00044D3F883
:1097F00020250292C3F82025D3F820280392C3F82D
:109800002028E3B2D3B1404F00250126344210D0C6
:10981000AB0003F1804303F5C043D3F81005D3F840
:10982000101557F8253023B1C1F30141C0F30520CD
:1098300098470135082D4FEA4606E7D1002C59DA42
:10984000314D324C324E4FF00008012716F9013BE2
:109850005A1C3CD0C3F3C20104A801445FFA83F947
:1098600011F8081C03F03F0203F0070307FA03F3A3
:1098700019422CD001A80192FFF730FE019B03F59D
:10988000E07350F82330C3F3014ABAF1020F0CBF62
:10989000032102211046FFF72DFE01A80192FFF7D8
:1098A0001DFE019B07FA03F3C0F82035AB1893F9AE
:1098B000303055F8233053B14FEA9911032904D0C1
:1098C000BAF1020F19D1012901D11046984708F1C8
:1098D0000108B8F1040FB9D14FF0A043D3F8202507
:1098E0000292C3F82025D4F820350393C4F820351C
:1098F0001343A7D104B0BDE8F087BAF1030FE6D156
:109900000229E1E7006000407832002000030050A7
:10991000D2320020014B1B68184700BFE032002004
:109920000220FFF783BC00002DE9F04780460D467A
:10993000FFF796FC0328044610D8012D10D0022D05
:1099400030D05DB91A48FEF771FC1A4B04EB4402A3
:1099500013449D78184B1B5DAB4219D0BDE8F087CE
:10996000144E00EB4003F218F55C5378470053B1F6
:10997000DFF84C900E484A464FF48041FEF728FC31
:1099800008B989F8008027443E440B4BB2781A5539
:10999000002DE3D0094B1B68002BDFD02846BDE823
:1099A000F047184700EB4004024804446578EFE7AD
:1099B000402B0020EA320020053300200033002035
:1099C000E832002000780221FFF7AEBF08B5094B4E
:1099D0001B7853B10020FFF7F7FB0120FFF7F4FBE2
:1099E000BDE808400320FFF7EFBBBDE80840FFF7E4
:1099F000FFBB00BFE9320020F8B57A4C237805465A
:109A00001BB100232370FFF7E1FF172D00F28780C1
:109A1000DFE805F00C1717425364757F878C878C3D
:109A2000949999999999C3C8D0D8E3E3FFF7CEFFE9
:109A30006D48FEF7FBFB6D4B002204461A70204672
:109A4000F8BD0020FFF798FBF0B10020FFF7BCFB4A
:109A5000022D0CBF4FF4E1644FF47A64634B1D7028
:109A600000254FF400464FF47A7029464FF4FA620D
:109A70000023E4FB060101F045F92A460146BDE852
:109A8000F8405948FEF7A4BBFFF78AFB022D0CBF34
:109A9000C8244FF4C874E1E70020FFF76DFB40B124
:109AA0000020FFF791FB4FF44874504B03221A70CB
:109AB000D6E7FFF775FBC824F7E70020FFF75CFB4C
:109AC00038B10020FFF780FB4FF47A64474B042243
:109AD000EDE7FFF765FB4FF4C874F7E70020FFF7E9
:109AE0004BFB48B10020FFF76FFB404B05221A707B
:109AF00040F6CD410022C2E7FFF752FBF5E7002018
:109B0000FFF794FB394B06221A70002240F266617F
:109B1000B5E70020FFF744FB344B07221A700024FE
:109B20008DE701202070FFF781FBEEE70120207018
:109B3000FFF77CFB00224FF40051A0E7FFF767FB23
:109B40002A4B0C22EAE72A482A4EFEF76FFBD5F192
:109B5000110504461CD0D8B9012D13D0C8204543A7
:109B600021464FF400474FF47A704FF4FA62002315
:109B7000C5FB070101F0C6F8224601461C48FEF766
:109B800027FB04460220FFF70BFB0123337056E747
:109B90000220FFF719FB0023F8E7FFF717FF134B2D
:109BA0001222BBE7FFF712FF0020FFF7F9FA0F4B75
:109BB0001322B3E7FFF70AFF0120FFF7F1FA0B4B7F
:109BC0001422ABE7FFF702FF0020FFF7E9FA0120BC
:109BD000FFF7E6FA054B1522A0E7FFF718FB034B4A
:109BE0001D709CE7FC320020602B00200433002015
:109BF000202B0020E9320020044B1B68DB0703D533
:109C0000034B1878FFF7F8BE704700BFF83200200A
:109C100004330020044B1B6813F0010301D0FFF74D
:109C2000EBBE1846704700BFF832002038B51C4B19
:109C300018601C4B10F00204054619601AD01A4B2C
:109C40001A480E221A700F22DA7010229A7111220D
:109C50005A72042140F23332FEF728F9044648B91B
:109C6000FEF77CF9044628B90146114A1148FEF76F
:109C70009DFA0446EB0711D50120FFF703FB6CB9F1
:109C800021460D4A0D48FEF791FA044630B9BDE869
:109C900038400B4A0B480121FEF788BA204638BDF0
:109CA000F832002000330020EA320020A8B702007A
:109CB000C5990200CCB70200F99B0200D0B70200A0
:109CC00021990200C8B70200032811D8012A0AD13D
:109CD00001290FD100F10E02D2B20D4B00EB400072
:109CE0001A54002070470129F7D0022904D049B145
:109CF000072070470022F8E7054B00EB40001844AE
:109D00004270EEE7024B00EB400018448270E8E737
:109D1000EA32002008B5012202210020FFF7D4FF1B
:109D200008B1072810D1072202210120FFF7CCFF3C
:109D300008B1072808D100210A220846FFF7C4FF0E
:109D400010B1072808BF002008BD00000388102BB1
:109D500010B502D0112B1ED010BD1A4C2168B1B91C
:109D600001220846FFF7B0FF08B1072824D10722D7
:109D700002210120FFF7A8FF08B107281CD1042207
:109D800002210020FFF7A0FF08B1072814D12368A3
:109D900001332360E0E70B4A1368013B1360002B9B
:109DA000DAD1FFF7B7FF0028D6D0074B1B68002B8E
:109DB000D2D0BDE810401847034B1B68002BE6D0FB
:109DC0009847E4E7103300200C33002072DF70471F
:109DD00073DF704774DF704777DF70472DE9804885
:109DE0004FF08043012297B0C3F878254FF48041AB
:109DF0000020FDF74BFC08B1FEF7C6F8FDF784FB29
:109E0000774C784B7849E41AE408240444F00306BC
:109E10003046FDF7D9FDFEF797F908B1FEF7B4F823
:109E200000210120FFF702FF08B1FEF7ADF8FFF7B0
:109E300049F808B1FEF7A8F800F094FD08B1FEF764
:109E4000A3F8002307A90120079300F01DFE08B125
:109E5000FEF79AF807A800F0E7FE08B1FEF794F8BD
:109E6000624D634F06955923ADF81030EB7BDFF858
:109E700084910133EB733C221023002107A84FF09B
:109E80000008ADF8143001F02BF806238DF81F30D0
:109E9000182204AB4146384610938DF81C8001F01F
:109EA0001FF80A233B704A464FF44863BB604FF4E7
:109EB0008063BB8252F8041BC7F80480042307A800
:109EC000A7F80C80BB7500F0D1F908B1FEF75CF87B
:109ED000474A48494848FFF779FF08B1FEF754F868
:109EE000DFF81481042298F800100120FFF774FFB6
:109EF00008B1FEF749F84149DFF818A13046FDF7EF
:109F000063FD3F4B43F001034FF0000B019398F8C2
:109F10000000FFF75FFF30F0080301D0FEF734F8D0
:109F2000EB7B0133DBB2EB731BB951463046FDF7D7
:109F30004BFD34493046FDF747FD2C4B3249002795
:109F400044F0050013F8012B0137CDE90203FDF7BA
:109F50003FFD102F02982C49039BF3D12B49FDF7AD
:109F600033FD59233C22002107A8ADF81030069597
:109F7000ADF8147000F0B4FF06238DF81F30244AAA
:109F8000D9F800108DF81CB004AB07A8109300F0AE
:109F90006DF908B1FDF7F8FF164917480022FFF7E1
:109FA00015FF08B1FDF7F0FF98F800000121FFF759
:109FB0000FFF08B1FDF7E8FF0220FFF72BFE08B105
:109FC000FDF7E2FF4FF4FA67019B4FF47A409847A0
:109FD000013FF9D1FDF7ACFB0028FBD197E700BFAB
:109FE00060B0020038B00200D4B702002C33002069
:109FF00014330020802B0020902B0020EAB70200B1
:10A0000040B8020025B802003BB80200E7B70200E2
:10A01000842B002002B802000369C26893429CBFEF
:10A0200080681B18013B981A70472DE9F843D0E966
:10A0300002940546A9EB04084068904520440F4669
:10A04000144404D900F023FFEC60BDE8F8834246D5
:10A05000A4EB090400F01BFF6868224607EB080127
:10A06000F0E72DE9F843C5680646894617464FF0E4
:10A0700000083469B3687068A54228BFE418013C41
:10A08000621B5C1BBC4228BF3C46944228BF14465E
:10A0900049462844224600F0FAFEB3682544AB4204
:10A0A00008BF00253F1BA044A144F560E1D1404614
:10A0B000BDE8F88310B5114C114AA2610223C4E92E
:10A0C0000433104BE361A2644FF400730E4A0F494E
:10A0D0002362E26400231022E01DA3626362E36254
:10A0E000A3656365E365226500F02DFF08492046FE
:10A0F00000F029FF2023A37110BD00BF5C330020B6
:10A1000046B80200E4330020D43300204FB80200E8
:10A1100053B8020070B5164B182400FB04451D44CB
:10A1200004FB00331646DC6A012C0ED0022C18D03A
:10A13000E4B92846FFF770FF864204D83246284625
:10A14000FFF773FF3446204670BD2846FFF764FFD3
:10A150008642344628BF044622462846FFF765FF5C
:10A16000F1E72846BDE87040FFF77BBF0024EAE72F
:10A170005C330020FFF79EBF6DDF704779DF7047CB
:10A180007DDF704764DF70472DE9F04F85B0002513
:10A190000E9CBDF83CB0B4F800A001910746904673
:10A1A0001E46A9463A884A450DDC45B12388013B45
:10A1B000A3EB0A039BB2FF2B3AD806F80A30002023
:10A1C00005B0BDE8F08F7A6852F8290003900022AC
:10A1D0000DF10B0103A8FFF7D5FF0028F0D19DF882
:10A1E0000B20424521D12288002D14BF00200220DF
:10A1F00002EB0801014459451ADC3DB9013292B223
:10A20000019B2280B35422880132228022880DF1E2
:10A210000B01324403A8FFF7B5FF0028D0D12188F5
:10A220009DF80B200A442280012509F10109B9E7B4
:10A230000C20C5E72DE9F341089FBDF824801546A1
:10A24000CDE90078022204461E46FFF79DFF50B973
:10A250003346102229462046CDE9087802B0BDE8F1
:10A26000F041FFF791BF02B0BDE8F0812DE9F04F5A
:10A2700000231788138090F82D3085B006460D46D0
:10A28000144653B3082F01D80C2027E102A8FFF78A
:10A2900073FF002840F0228123880822EA54238893
:10A2A00001339BB21B222380EA542088013080B204
:10A2B000208006220DF10901284400F0E8FD2388E2
:10A2C0009DF8082006339BB212F0FE0218BF01224F
:10A2D0002380EA54238801332380B378FBB1238899
:10A2E0000433BB42D0D802A8FFF748FF002840F053
:10A2F000F58023880322EA54238801339BB2192274
:10A300002380EA542388BDF8082001339BB2E91862
:10A310002380EA54120A4A70238802332380F27899
:10A320009AB12388D91CB942AED80221E9542388B6
:10A3300001339BB201212380E95423880B449BB253
:10A340002380EA5423880B4423807268AAB12388AF
:10A35000D91CB94298D8022192F90020E9542388E7
:10A3600001339BB20A212380E954238801339BB235
:10A370002380EA542388013323803389002B40F063
:10A38000A180338A5BB1CDE900472B460722032128
:10A3900006F11000FFF74EFF002840F09F80338B3E
:10A3A0005BB1CDE900472B461522142106F11800B8
:10A3B000FFF740FF002840F09180326A002A40F009
:10A3C0009080D6F82480B8F1000F30D0B8F804306F
:10A3D0002188981C8A1C0244BA423FF655AFFE28D9
:10A3E0003FF652AF03336B54238801339BB2FF22F5
:10A3F0002380EA54238801339BB22380B8F80020DD
:10A40000EA54E918120A4A702088023080B220808B
:10A41000B8F804205AB1D8F8081000296BD02844A5
:10A4200000F035FD2388B8F804201344238096F803
:10A430002C30002B40F09880307800284ED03388A4
:10A44000012B58D0228802F1020CBC453FF61CAF0C
:10A45000012805D17378023313449F42FFF414AFEF
:10A46000023FBF1ABFB202A905EB0C00ADF808709D
:10A47000FFF786FE90BB3178BDF80830022900F066
:10A48000B98072789A4202D39F4280F0B18001294C
:10A4900040F0B280974293B2C0F0AE80ADF8083081
:10A4A0000821BDF80830FE2B3FF6EEAE22880133BE
:10A4B000AB542288013292B22280A95422881344DC
:10A4C00023800BE0CDE900472B460622022106F14E
:10A4D0000800FFF7AFFE00283FF453AF05B0BDE81A
:10A4E000F08FB4F800C00CF10603BB423FF6CCAECF
:10A4F0001188052901D80720F0E76FF4486E01EBB9
:10A500000E039BB24FF27D3E7345F4D95388052B61
:10A51000F1D96FF44860181880B27045EBD94FF646
:10A52000FF70814201D09942E5D8052305F80C302F
:10A53000238801339BB212212380E95423880133FD
:10A540009BB223801188E954E818090A41702388D6
:10A5500002339BB223805288EA54E918120A4A70E7
:10A560002388023323802CE7B36A002BC3D04FF03B
:10A5700000084FF00C0A4FF0160BB16A5FFA88F230
:10A580000AFB02F201EB0209B9F80430981CFE281C
:10A590003FF67AAE208803332B54238801339BB2D5
:10A5A000238005F803B0238801339BB223808A5AA5
:10A5B000EA54E918120A4A702088023080B22080DA
:10A5C000B9F804205AB1D9F80810002993D02844CA
:10A5D00000F05DFC2388B9F804201344238096F82A
:10A5E0002C2008F101085FFA88F39A42C5D823E7C6
:10A5F000092156E79F42FBD2ADF8087050E70000F2
:10A60000034B1A8882420CBF18460020704700BFD7
:10A6100000360020024B9B6903B11847704700BF0A
:10A62000E435002037B50B46497A0F4A79B9D2E9AB
:10A6300001141D7A0246002D18BF21465868FDF707
:10A64000C7FD78B103B0BDE83040FFF7E3BF00219C
:10A650001972536933B10122ADF806008DF8042058
:10A6600001A8984703B030BDE43500204B8802882C
:10A670009A4212D842889A420FD380888B8840F23F
:10A68000F311884294BF021A421A9A4205D808442C
:10A69000984234BF0020012070470020704700001E
:10A6A0000388122B70B5014659D004D8102B1ED048
:10A6B000112B44D070BD502BFCD12F4BC288DB89AD
:10A6C0009A42F7D1038A022BF4D186883046FFF7ED
:10A6D00097FF05460028EDD001F1120000F0F4F8D4
:10A6E00038BB6868FDF7A2FD0028E3D009E0C37B12
:10A6F000012BDFD14FF6FF70FFF782FF054620B92F
:10A700000420BDE87040FFF785BF1C4A8E88068094
:10A71000002303721368C0F80A305368C0F80E3083
:10A7200010310A30FFF7A2FF134B6872DB89002B50
:10A73000C0D129463046BDE87040FFF773BF80881E
:10A74000FFF75EFF04460028B4D04068FDF76EFDB9
:10A7500008B1FFF75FFF4FF6FF732380AAE78688F3
:10A760003046FFF74DFF05460028A3D008310A30D8
:10A77000FFF77CFF6872DCE7E43500201436002028
:10A780000AB1FEF75DB8FEF764B873B50191019C9C
:10A7900006466CB100252C46294601A8FEF763F851
:10A7A00018B106EB440301349D800135142DF3D11B
:10A7B0003046346002B070BD2DE9F04703888488CC
:10A7C000103B8CB005460A2B21D8DFE803F0064089
:10A7D00020202020202020654700DFF8E880D8F8DE
:10A7E0000830DB430093D8F804106846FEF767F89A
:10A7F000009901A8FFF7C9FF0DF108090027019B87
:10A800009F4207D3132C12D90420FDF7BDFB0CB0D7
:10A81000BDE8F08739F802AB00260136514608EB57
:10A820008600FEF716F81E2EF7D10137E7E71F481E
:10A830002146FEF705F81E482146FEF701F8EB7B9E
:10A84000022BE4D11B482146FDF7FAFFDFE717484A
:10A8500021460CB0BDE8F047FDF7FBBF027A164871
:10A860003F2A4FEA1215214694BF00220122FFF72A
:10A8700087FF022D94BF0022012210482146FFF7D6
:10A880007FFF012D0E4894BF0022012221460CB00B
:10A89000BDE8F047FFF774BF037A002BB7D1427AC7
:10A8A0000548C2F3C0022146F1E700BF243600206C
:10A8B0002036002028360020343600203036002094
:10A8C0002C3600201C360020008800F00100704764
:10A8D00010DF704713B5044609496846FEF711FBBF
:10A8E000019808B902B010BDD0E900212046904778
:10A8F00018B16846FEF70FFBF2E71120F2E700BF40
:10A9000074B8020013B5044607496846FEF7F9FA21
:10A91000019B0BB902B010BD2046D3E9002190473E
:10A920006846FEF7F8FAF3E78CB802000B4991F895
:10A9300016335A09EC231341DB0706D5084B9A68F6
:10A940003AB94FF480030B60704742F20200FDF702
:10A950001BBB1A6842F480021A60704700E100E0F5
:10A9600034320020F7B5194F3C7864BB184E0125EE
:10A9700020463570FFF7AEFF112821D02046FFF7A3
:10A98000C1FF144B8DF80340186801900DF10300CE
:10A99000FDF756FD104901A8FFF79AFF0446B0FAEB
:10A9A00080F0400938709DF80300FDF76DFD3CB95B
:10A9B0000A4B34701C70FFF7B9FF2846FFF7A2FF5F
:10A9C000204603B0F0BD0824FAE700BF9936002006
:10A9D000983600206FB80200A57F02009A3600204A
:10A9E000014B1878704700BF9936002007B5084919
:10A9F0006846FEF786FA019B13B903B05DF804FBC5
:10AA0000D3E9002090476846FEF785FAF3E700BFD8
:10AA100080B80200FFF7EABF60DF704769DF704768
:10AA200061DF704730B5134DADF5017D4FF4FA7419
:10AA30000DF1020103A8ADF80240FFF7F1FF70B974
:10AA4000294601A8FEF75DFA029B002BF0D003A86F
:10AA5000D3E90021904701A8FEF75DFAF4E7052845
:10AA600005D00DF5017DBDE83040FDF78DBA0DF53F
:10AA7000017D30BD14BB0200024B1B780BB1FFF708
:10AA8000D1BF70479B36002030B5054685B00C46D7
:10AA9000002900F0B5805B4B0B600C22002101A85F
:10AAA00000F01EFA01238DF8063022688DF804505C
:10AAB000062301A92020ADF80830FFF7AFFF60B1F1
:10AAC000FEF77AFA504B5149024651481B1ADB08EF
:10AAD0001B0443F00100FCF77BFF0C22002101A8BE
:10AAE00000F0FEF901238DF805302268002301A94A
:10AAF0004020ADF80630FFF791FF60B1FEF75CFA39
:10AB0000414B4449024642481B1ADB081B0443F0F0
:10AB10000100FCF75DFF0C22002101A800F0E0F924
:10AB2000F72322688DF8045001A92320ADF80630E0
:10AB3000FFF774FF60B1FEF73FFA334B3649024628
:10AB400033481B1ADB081B0443F00100FCF740FFED
:10AB50000C22002101A800F0C3F9012022688DF821
:10AB6000040001A9FFF75AFF60B1FEF725FA264B52
:10AB70002A49024626481B1ADB081B0443F0010041
:10AB8000FCF726FF0C22002101A800F0A9F94FF4E0
:10AB9000B0632268019301A9A120FFF73FFF60B1D4
:10ABA000FEF70AFA184B1E49024619481B1ADB0821
:10ABB0001B0443F00100FCF70BFF0C22002101A84D
:10ABC00000F08EF99DF8043022686FF3000301A9AC
:10ABD000A0208DF80430FFF721FF034668B1FEF78F
:10ABE000EBF9094B0F49024609481B1ADB081B0405
:10ABF00043F00100FCF7ECFE0023184605B030BD21
:10AC00000E23FAE7E82A002090B0020098B802006C
:10AC100038B00200DEB802002AB9020071B90200A1
:10AC2000BDB902000EBA020073B505460668FFF70B
:10AC3000F3FE2B68B34204461DD91A481A4B1B4930
:10AC40001B1ADB081B0443F002000190FCF7BCFE5A
:10AC50002B68174901983246FCF7C3FE4FF080532A
:10AC60002A68D3F80C31134901989B0203F1005371
:10AC70009A1AFCF7ADFE2CB90F4B01221A70204630
:10AC800002B070BD2046FEF797F9074B0B4902460C
:10AC900004481B1ADB081B0443F00100FCF798FE74
:10ACA000EDE700BF38B0020090B0020061BA0200C8
:10ACB00090BA0200C1BA02009B360020EBBA020033
:10ACC0004BDF70471FB50E4C01A8FFF7F9FF70B9B5
:10ACD000214602A8FEF715F9039B002BF4D001983A
:10ACE000D3E90021904702A8FEF715F9F4E70528FB
:10ACF00004D004B0BDE81040FDF746B904B010BD63
:10AD00002CBB020053EA020C61D02DE9F04BB3FAE0
:10AD100083F51E0007BFB2FA82F502FA05F403FAC2
:10AD200005F41646C5F120051EBF22FA05F73C437F
:10AD3000203556EA044C4FEA144418BF0134A346A8
:10AD40004FF00009C846904271EB030C39D3094219
:10AD500007BFB0FA80F700FA07F6B1FA81F701FAF7
:10AD600007F6C7F120071EBF20FA07FC46EA0C06CB
:10AD70002037B6FBFBFC7F1B103F07F01F04C4F11C
:10AD800020060CFA04F42CFA06F644BF34460026DA
:10AD9000202FA4BF2646002454EA060C08BF012435
:10ADA00018EB040849EB0609A4FB027CC01B06FB58
:10ADB00002CC04FB03CC71EB0C01904271EB030C51
:10ADC000C5D20B46024649464046BDE8F08BB2FB71
:10ADD000F3F200007F2805D8034B185C034B5B5C43
:10ADE000184070470020704744BB0200C4BB0200FB
:10ADF000A0F16103192B98BF20387047A0F14103DF
:10AE0000192B98BF203070477F2805D8034B185C5A
:10AE1000034B5B5C184070470020704744BB020046
:10AE2000C4BB0200A0F16103192B98BF2038704702
:10AE3000A0F14103192B98BF203070477F299ABF9A
:10AE4000017001206FF02E0070475AB10A787F2AF6
:10AE50000AD800B10260002119605960501A18BF69
:10AE600001207047002070476FF02E0070470000EF
:10AE700008B5034B5B689B681B68984708BD00BF1B
:10AE8000942B002008B50921FFF7F2FF08BD844686
:10AE900040EA010313F0030F18D18446202A0BD394
:10AEA0002DE9F007B1E8F807A0E8F807A2F12002C1
:10AEB000202AF7D2BDE8F007042A07D351F8043B53
:10AEC00040F8043BA2F10402042AF7D2002A05D07C
:10AED00011F8013B00F8013B013AF9D16046704797
:10AEE0008446002A2DD010F0030F04D000F8011B77
:10AEF000013A26D0F7E7C9B241EA012141EA01410E
:10AF0000202A12D3A2F120022DE9F0030B460C46B1
:10AF10000D460E460F4688468946A0E8FA03203AB9
:10AF2000FBD2BDE8F00320320BD0042A05D340F851
:10AF3000041B043A05D0042AF9D200F8011B013A97
:10AF4000FBD160467047024610F0030F16D111F096
:10AF5000030F13D12DE9F0004FF001374FF080338C
:10AF600051F8044BA4EB070525EA04051D4002D166
:10AF700042F8044BF4E7A1F10401F0BC11F8013BE5
:10AF800002F8013B002BF9D1704700F1010110F0EC
:10AF9000030F11D010F8012B002A23D010F0030F5B
:10AFA0000AD010F8012B002A1CD010F0030F03D098
:10AFB00010F8012B002A15D02DE970004FF0013256
:10AFC0004FF0803350F8044BA4EB020525EA04054A
:10AFD0001D4000D1F6E7A0F1040070BC10F8012B71
:0CAFE000002AFBD1A0EB0100704700002C
:08AFEC000593020000000000C3
:10AFF400B9A70200000000004D9D020000000000FF
:08B00400A1A6020000000000FB
:08B00C00A19302000000000006
:10B0140079AA020000000000C5AC02000000000094
:10B02400EC2B0020B42C0020BC2C0020F42B00209E
:04B034001800000000
:10B0380089B70200000000008FB70200000000007E
:10B0480096B70200000000009AB702000000000056
:10B058009FB7020000000000F5B0020000000303E3
:10B06800CCB1020000000000F5B1020000000000B1
:10B0780083B70200000000005AB802000000030372
:10B0880067B802000000030308BB020000000303C6
:10B0980020BB02000000030366B2020000000000AB
:08B0A8007CB202000000000070
:10B0B000C8B0020000000000D4B00200E82A00205E
:10B0C0000338FDD870470000D573020041740200B8
:10B0D000D17302007274745F6C6F675F6261636B3F
:10B0E000656E64004261636B656E647320666C75A7
:10B0F000736865640061707000000000DC3000203F
:10B100007F0000005C3100201B5B313B33316D0060
:10B1100025734C6F67732064726F707065642028AC
:10B1200025642925730D0A001B5B306D0025730013
:10B130003C25733E2025733A2000202530327800CC
:10B14000202020007C002563001B5B313B33306DE9
:10B15000001B5B313B33326D001B5B313B33336D86
:10B16000001B5B313B33346D001B5B313B33356D72
:10B17000001B5B313B33366D001B5B313B33376D5E
:10B18000007761726E696E6700696E666F00646554
:10B190006275670028B1020049B1020008B10200DF
:10B1A00051B1020059B1020061B1020069B102005F
:10B1B00071B1020079B1020000000000E2B10200AA
:10B1C00081B1020089B102008EB102006170705F2E
:10B1D000627574746F6E0000F02A0020466174611D
:10B1E0006C206572726F720053797374656D207292
:10B1F00065736574006170705F74696D65720000DD
:10B200000100060000000000AC31002011800200A7
:10B2100052544320696E7374616E636520616C7271
:10B220006561647920696E697469616C697A6564C5
:10B230002E005254433A20696E697469616C697AD0
:10B2400065642E0000000000000000000000000007
:10B250000338FDD87047303132333435363738391A
:10B260004142434445467077725F6D676D740000DC
:10B270000CB002000CB0020004000000736F727486
:10B280006C697374004E52465F53554343455353A4
:10B29000004E52465F4552524F525F5356435F48ED
:10B2A000414E444C45525F4D495353494E47004E21
:10B2B00052465F4552524F525F534F465444455693
:10B2C0004943455F4E4F545F454E41424C45440013
:10B2D0004E52465F4552524F525F494E5445524E70
:10B2E000414C004E52465F4552524F525F4E4F5FA7
:10B2F0004D454D004E52465F4552524F525F4E4FA4
:10B30000545F464F554E44004E52465F4552524F91
:10B31000525F4E4F545F535550504F525445440066
:10B320004E52465F4552524F525F494E56414C492C
:10B33000445F504152414D004E52465F4552524F7C
:10B34000525F494E56414C49445F53544154450065
:10B350004E52465F4552524F525F494E56414C49FC
:10B36000445F4C454E475448004E52465F4552524A
:10B370004F525F494E56414C49445F464C414753FA
:10B38000004E52465F4552524F525F494E56414C15
:10B3900049445F44415441004E52465F4552524F2A
:10B3A000525F444154415F53495A45004E52465FF3
:10B3B0004552524F525F54494D454F5554004E52DD
:10B3C000465F4552524F525F4E554C4C004E5246CE
:10B3D0005F4552524F525F464F5242494444454E98
:10B3E000004E52465F4552524F525F494E56414CB5
:10B3F00049445F41444452004E52465F4552524FC9
:10B40000525F42555359004E52465F4552524F5279
:10B410005F434F4E4E5F434F554E54004E52465F72
:10B420004552524F525F5245534F55524345530078
:10B430004E52465F4552524F525F4D4F44554C4518
:10B440005F4E4F545F494E495449414C495A454417
:10B45000004E52465F4552524F525F4D555445582B
:10B460005F494E49545F4641494C4544004E52465F
:10B470005F4552524F525F4D555445585F4C4F43B4
:10B480004B5F4641494C4544004E52465F4552523F
:10B490004F525F4D555445585F554E4C4F434B5F8F
:10B4A0004641494C4544004E52465F4552524F5228
:10B4B0005F4D555445585F434F4E445F494E495484
:10B4C0005F4641494C4544004E52465F4552524FFB
:10B4D000525F4D4F44554C455F414C524541445994
:10B4E0005F494E495449414C495A4544004E5246E1
:10B4F0005F4552524F525F53544F524147455F464A
:10B50000554C4C004E52465F4552524F525F41508F
:10B51000495F4E4F545F494D504C454D454E544543
:10B5200044004E52465F4552524F525F4645415489
:10B530005552455F4E4F545F454E41424C45440085
:10B540004E52465F4552524F525F494F5F50454EF3
:10B5500044494E47004E52465F4552524F525F4457
:10B5600052565F5457495F4552525F4F56455252AB
:10B57000554E004E52465F4552524F525F4452560E
:10B580005F5457495F4552525F414E41434B004E15
:10B5900052465F4552524F525F4452565F5457498C
:10B5A0005F4552525F444E41434B004E52465F4509
:10B5B00052524F525F424C455F495053505F525870
:10B5C0005F504B545F5452554E4341544544004ED6
:10B5D00052465F4552524F525F424C455F4950536D
:10B5E000505F4348414E4E454C5F414C52454144AB
:10B5F000595F455849535453004E52465F45525285
:10B600004F525F424C455F495053505F4C494E4B3F
:10B610005F444953434F4E4E4543544544004E52B8
:10B62000465F4552524F525F424C455F495053501E
:10B630005F504545525F52454A4543544544005585
:10B640006E6B6E6F776E206572726F7220636F64BF
:10B65000650000000000000085B20200010000004B
:10B6600091B2020002000000AFB20200030000002D
:10B67000D0B2020004000000E3B2020005000000A6
:10B68000F4B202000600000008B302000700000048
:10B6900020B302000800000038B3020009000000D7
:10B6A00050B302000A00000069B302000B00000062
:10B6B00081B302000C00000098B302000D000000EE
:10B6C000ACB302000E000000BEB302000F00000089
:10B6D000CDB3020010000000E1B302001100000031
:10B6E000F8B302001200000007B4020013000000CB
:10B6F0001CB402008000000030B402008100000091
:10B7000051B40200820000006DB40200830000000A
:10B7100089B4020084000000A7B402008500000084
:10B72000C8B4020086000000EDB4020090000000E2
:10B7300004B502009100000022B502009200000052
:10B7400040B502000082000055B5020001820000F1
:10B7500073B50200028200008FB502000084000071
:10B76000ABB5020001840000CFB5020002840000E6
:10B77000F9B50200038400001EB602000000010DAE
:10B780000E0F10636C6F636B00434C4F434B0047CD
:10B7900050494F54450050525300554152540055A2
:10B7A00041525445000000000B000300299902009B
:10B7B0000C000300299902001800030029990200D7
:10B7C0001900030029990200202B0020402B0020A3
:10B7D000602B00204C6F6767696E6720696E697423
:10B7E00069616C697A65640D0A00426561636F6E18
:10B7F000206578616D706C65207374617274656426
:10B800002E00426561636F6E20496E666F206C6129
:10B81000737420627974652077726170706564203A
:10B82000746F2030005570646174656420426561F6
:10B83000636F6E20496E666F3A20002530325800E3
:10B840000338FDD870475465726D696E616C0052A3
:10B85000545400534547474552006E72665F626C10
:10B86000655F67617474006E72665F73646800017F
:10B87000000007000CB002000CB00200080000003D
:10B8800014B0020024B00200080000000CB0020056
:10B8900014B002000800000073645F626C655F63AF
:10B8A00066675F73657428292072657475726E65AA
:10B8B00064202573207768656E20617474656D70EF
:10B8C00074696E6720746F2073657420424C455F05
:10B8D000434F4E4E5F4346475F4741502E007364CF
:10B8E0005F626C655F6366675F73657428292072A9
:10B8F000657475726E6564202573207768656E20A7
:10B90000617474656D7074696E6720746F207365FF
:10B910007420424C455F4741505F4346475F524F5A
:10B920004C455F434F554E542E0073645F626C6507
:10B930005F6366675F73657428292072657475722A
:10B940006E6564202573207768656E206174746568
:10B950006D7074696E6720746F2073657420424C3B
:10B96000455F434F4E4E5F4346475F474154542E19
:10B970000073645F626C655F6366675F73657428FC
:10B98000292072657475726E65642025732077684E
:10B99000656E20617474656D7074696E6720746F74
:10B9A0002073657420424C455F434F4D4D4F4E5FB1
:10B9B0004346475F56535F555549442E0073645FB5
:10B9C000626C655F6366675F7365742829207265C2
:10B9D0007475726E6564202573207768656E2061CA
:10B9E0007474656D7074696E6720746F207365740C
:10B9F00020424C455F47415454535F4346475F41A3
:10BA00005454525F5441425F53495A452E00736467
:10BA10005F626C655F6366675F7365742829207277
:10BA2000657475726E6564202573207768656E2075
:10BA3000617474656D7074696E6720746F207365CE
:10BA40007420424C455F47415454535F4346475F1F
:10BA5000534552564943455F4348414E4745442E5E
:10BA600000496E73756666696369656E742052413C
:10BA70004D20616C6C6F636174656420666F722029
:10BA800074686520536F66744465766963652E003B
:10BA90004368616E6765207468652052414D20736C
:10BAA00074617274206C6F636174696F6E2066726A
:10BAB0006F6D203078257820746F20307825782EAF
:10BAC000004D6178696D756D2052414D2073697A22
:10BAD0006520666F72206170706C69636174696F54
:10BAE0006E20697320307825782E0073645F626C55
:10BAF000655F656E61626C65282920726574757278
:10BB00006E65642025732E006E72665F7364685FD5
:10BB1000626C6500F4AF02000CB002000800000087
:10BB20006E72665F7364685F736F6300ECAF0200F0
:10BB3000F4AF02000800000043000000504F5349DA
:10BB400058000000202020202020202020682828C5
:10BB500028282020202020202020202020202020D5
:10BB6000202020204810101010101010101010105D
:10BB7000101010108484848484848484848410103D
:10BB8000101010101081818181818101010101015A
:10BB90000101010101010101010101010101011086
:10BBA000101010101082828282828202020202022F
:10BBB0000202020202020202020202020202021057
:10BBC000101010200007032004170201085710402E
:10BBD0008000000038BB02003CBC020050BD0200E7
:10BBE00053756E004D6F6E005475650057656400A7
:10BBF00054687500467269005361740000000000CB
:10BC00004A616E00466562004D61720041707200CB
:10BC10004D6179004A756E004A756C004175670088
:10BC2000536570004F6374004E6F76004465630087
:10BC300000000000414D00504D00000074BD0200A6
:10BC400070BD020070BD020070BD020070BD020038
:10BC500070BD020070BD020070BD020070BD020028
:10BC600070BD0200FFFFFFFFFFFFFFFFFFFFFFFFB1
:10BC7000FFFF0000B0BC0200E0BB0200ECBC020011
:10BC800000BC020034BC020094BC020044BD0200AF
:10BC9000A0BC0200256D2F25642F2579000000002F
:10BCA0002561202562202565202554202559000086
:10BCB00053756E646179004D6F6E646179005475DF
:10BCC0006573646179005765646E657364617900BA
:10BCD00054687572736461790046726964617900B1
:10BCE0005361747572646179000000004A616E7579
:10BCF000617279004665627275617279004D617298
:10BD0000636800417072696C004D6179004A756E1C
:10BD100065004A756C7900417567757374005365E9
:10BD20007074656D626572004F63746F6265720056
:10BD30004E6F76656D62657200446563656D626520
:10BD40007200000025483A254D3A255300000000B6
:10BD5000D5AD0200F1AD0200FDAD020009AE02005A
:10BD600025AE020031AE02003DAE02004BAE020035
:08BD7000000000002E0000009D
:10BD780000000000FF0000000000000000000000BC
:10BD8800FFFFFFFFFFFFFFFF0000000000000000B3
:10BD98000000000000000000001001401100040035
:10BDA8000090D00300000000000000000000000028
:10BDB800FFFFFFFFFFFFFFFF000000000000000083
:10BDC800000000000000000000000000000000006B
:10BDD800FFFFFFFFFFFFFFFF000000000000000063
:10BDE800000000000000000000000000000000004B
:10BDF800FFFFFFFFFFFFFFFF000000000000000043
:10BE080000000000000000003C3300201F0000007C
:10BE18000000000000000000FF000000D4BB02008A
:10BE2800D4BB0200D4BB0200D4BB0200D4BB0200C6
:0400000320007375F1
:00000001FF
