:020000022000DC
:1070000000000220757302005D7302005F730200CE
:1070100061730200637302006573020000000000E8
:107020000000000000000000000000006773020084
:1070300069730200000000006B7302006D730200B0
:10704000B98402006F730200558902006F73020059
:107050006F7302006F730200D98702006F73020022
:107060006F7302006F7302006F7302006F73020090
:107070006F7302006F7302006F7302006F73020080
:107080006F730200DD7D02006F7302006F730200F8
:107090006F7302006F730200519902006F73020058
:1070A0006F7302006F7302006F7302006F73020050
:1070B0006F7302006F730200000000000000000008
:1070C0006F7302006F7302006F7302006F73020030
:1070D0006F7302006F7302006F7302006F73020020
:1070E0006F730200000000000000000000000000BC
:1070F000000000006F730200000000006F730200C8
:10710000000000000000000000000000000000007F
:10711000000000000000000000000000000000006F
:10712000000000000000000000000000000000005F
:10713000000000000000000000000000000000004F
:10714000000000000000000000000000000000003F
:10715000000000000000000000000000000000002F
:10716000000000000000000000000000000000001F
:10717000000000000000000000000000000000000F
:1071800000000000000000000000000000000000FF
:1071900000000000000000000000000000000000EF
:1071A00000000000000000000000000000000000DF
:1071B00000000000000000000000000000000000CF
:1071C00000000000000000000000000000000000BF
:1071D00000000000000000000000000000000000AF
:1071E000000000000000000000000000000000009F
:1071F000000000000000000000000000000000008F
:10720000354936480A1A02D0072291438D4634493F
:1072100034480A1A06D00722914381F309880222D2
:1072200082F3148830483149314A00F044F831483B
:107230003149324A00F03FF831483249324A00F0D1
:107240003AF832483249334A00F035F83248334987
:10725000334A00F030F833483349344A00F02BF811
:1072600033483449344A00F026F83448344900227F
:1072700000F02CF833483449002200F027F8334856
:107280003349091A082902DB002202604160314AB1
:1072900090471F481F49884205D00268043003B454
:1072A000904703BCF7E700208646EC46002000210B
:1072B000294A9047FEE7884207D0521A05D0037842
:1072C00001300B700131013AF9D17047884202D088
:1072D00002700130FAE770470000022000F8012038
:1072E0000000022000000220589D0200E82A002031
:1072F0009D2B0020D0730200D0730200749C02000A
:10730000589D0200E82A0020E82A0020AC9C0200D8
:10731000AC9C0200AC9C0200AC9C0200AC9C020045
:10732000AC9C0200AC9C0200AC9C0200589D020088
:10733000109E0200A02B0020A02B0020A02B0020DC
:107340003C2E00203C2E00203C2E00203C2E002015
:107350003C3600209D7302006D8F0200FEE7FEE7C1
:10736000FEE7FEE7FEE7FEE7FEE7FEE7FEE7FEE7F5
:1073700000F002B8FFF7FCBF0F484FF00701884349
:1073800085460E4880470E48016841F4700101604F
:10739000BFF34F8FBFF36F8FFFF732BF09480A4922
:1073A0000A4A884207D0521A05D0037801300B7080
:1073B0000131013AF9D1704700000220318002000A
:1073C00088ED00E0AC9C0200E82A0020E82A0020BA
:1073D000C30710B507D4F023054A4008145C2340C6
:1073E0001943115410BD0901C9B20F23F4E700BFBE
:1073F000B02B002030B5094B1C78094B19680023CD
:107400009C4202DC0022104630BD11F83350854208
:1074100001EBC302F7D00133F2E700BFA02B00203D
:10742000D02B002013B504460191FFF7E3FF38B1DC
:1074300043682BB10199204602B0BDE810401847BF
:1074400002B010BD034B044819680022490800F03F
:1074500037BA00BFA42B0020E82A002010B5C0B224
:10746000FFF7C8FF0446007801F0A8F963785A1EB8
:1074700053425341834208D1044BD3E900231343C1
:1074800003D1BDE81040FFF7DDBF10BDA82B0020E1
:1074900037B54308374AD35CC2074CBF1B0903F01A
:1074A0000F0304460D46042B25D8DFE803F003261E
:1074B0002F3C4000F9B10121FFF78AFF00230DF1B5
:1074C00007008DF8073000F033FB0120A4F1200302
:1074D000C4F12001284A20FA01F100FA03F30B431A
:1074E000A040D2E9004120430B43C2E900039DF8CC
:1074F000070000F041FB03B030BD002918BF022196
:10750000204603B0BDE83040FFF762BF49B1032118
:10751000FFF75EFF0121204603B0BDE83040FFF7D2
:1075200081BF0121ECE70029E5D10421E8E709B199
:107530000321E5E7FFF74CFF29462046FFF772FFDE
:107540000DF107008DF8075000F0F2FA0120A4F1C8
:107550002003C4F12001084A20FA01F100FA03F3E4
:107560000B43A040D2E9004124EA000021EA0303D2
:10757000BBE700BFB02B0020A82B00202DE9F04175
:10758000124E134F00243378A34208DC114BD3E989
:107590000023134318D0BDE8F041FFF753BF3D6807
:1075A00005EBC40815F8340001F008F998F801302B
:1075B0005A1E53425341181A4142414115F83400B2
:1075C000FFF766FF0134DEE7BDE8F081A02B002065
:1075D000D02B0020A82B0020092AF7B505460C4621
:1075E00016463ED901F012F8E8B11F4B1F481D6046
:1075F0001F4B204F1C70204B002120221E6002F0E8
:1076000005FB1E4B00200021C3E90001013CE4B250
:107610000326FF2C0DD11A4A1A48002103B0BDE8F9
:10762000F04000F03BB900F0ABFF0028DDD003B024
:10763000F0BD9DF8063015F834008DF8046005EBB8
:10764000C40223F007038DF8063001A993788DF862
:1076500005303A4600F0E4FF013CE4B20028D8D0FF
:10766000E5E70720E3E700BFD02B0020B02B002088
:10767000A02B00205D740200A42B0020A82B00206A
:107680007D750200AC9C020070B5084D084E0024C8
:107690002B789C4201D3002070BD3368012113F880
:1076A000340001F03DF80134F2E700BFA02B0020C8
:1076B000D02B00201FB50021039001AA44F2010045
:1076C000CDE9011100F004F805B05DF804FB0000FD
:1076D00072B6094BD3F8F020D20700D500BEBFF335
:1076E0004F8FD968054A01F4E0610A43DA60BFF3BD
:1076F0004F8F00BFFDE700BF00ED00E00400FA057A
:1077000010B5D0E90243D1E90202A04272EB0303B3
:107710002CBF0120002010BD08B50A4800F047FB2F
:10772000094AD2E90031C018084BD3E9002341F1DE
:107730000001904271EB030303D210F1807041F11C
:10774000000108BD082B0020D82B0020502C002061
:1077500037B505460C460A4801A900F05CFB60B14C
:107760000570446001A9064800F07FFB18B1054888
:1077700000F022FB002003B030BD0420FBE700BF77
:107780003C2C0020082B0020294B73B51E780446A2
:107790001EB90026304602B070BD0028F9D0FFF7B0
:1077A000BBFFD4E902239042994139D300230DF164
:1077B00007008DF8073000F0BBF923692BB94FF0B3
:1077C000FF324FF0FF33C4E902239DF8070000F0B9
:1077D000D3F9D4E90530984700250DF107008DF85D
:1077E000075000F0A5F92369C3B1D4E90212B2F140
:1077F000FF3F08BFB1F1FF3F05D05B1842F1000227
:10780000C4E9023235469DF8070000F0B5F9002DB5
:10781000BFD00848214600F0D3FBBBE71D46F2E786
:10782000B3F1FF3F08BFB2F1FF3FB2D0F1E700BFB5
:10783000E02B0020B49C020013B5114B11491868CD
:10784000019008231048582200F0D2FA044698B953
:107850000E4A0F4801A900F0B3F9044660B90C487C
:10786000012100F087FA01230A4A0948194600F06D
:10787000E9F9094B01221A70204602B010BD00BF81
:10788000B09C0200E42B00203C2C002079790200FF
:10789000082B0020FFFF7F00E02B002030B56AB1ED
:1078A00003684FF0FF344FF0FF355A614A1E5142D2
:1078B000C3E9024551411961002030BD0720FCE7B2
:1078C000F7B5044600250DF1070017460E468DF862
:1078D000075000F02DF9D4E90223B3F1FF3F08BFB0
:1078E000B2F1FF3F07D1FFF717FF301841F1000158
:1078F000C4E9020101259DF8070000F03DF955B1EA
:107900002369A76103B126612146002003B0BDE8C9
:10791000F040FFF71DBF284603B0F0BD37B5054660
:1079200000240DF107008DF8074000F001F9D5E9BA
:107930000223B3F1FF3F08BFB2F1FF3F1FBF4FF07B
:10794000FF324FF0FF33C5E9022301249DF8070001
:1079500000F012F934B12946012003B0BDE83040EF
:10796000FFF7F6BE204603B030BD0000014800F02E
:107970001EBA00BF082B00202DE9F743064600F091
:1079800001FA40B1624AD2E9003113F1807341F14A
:107990000001C2E900310021304600F002FA38B19E
:1079A0005C4C236823B12068FFF7EEFE00232360C0
:1079B0000121304600F0F5F920B1FFF7ADFE564B3E
:1079C000C3E900015548534C01A900F05EFA4FF09D
:1079D000FF384FF0FF39A0B9DFF844814D4D4046E4
:1079E00000F004FB002800F08580D0E90223B3F109
:1079F000FF3F08BFB2F1FF3F32D1404600F0F0FA3E
:107A0000EDE70378012B20D0022B08D1444D284606
:107A100000F0E6FA002877D0C0E90289F7E75BB901
:107A20004168D1E90223B3F1FF3F08BFB2F1FF3F44
:107A300002D03B4800F0C4FA01A9384800F050FADF
:107A400001A9364800F021FAC5E741682368994248
:107A500002D100232360EFE7314800F0CAFAEBE7D8
:107A6000296891B12968D1E9020182428B412FD264
:107A70002B68D3E90223B3F1FF3F08BFB2F1FF3F08
:107A800003D02968404600F09BFA404600F0A8FA6F
:107A9000D0E902490746FFF73FFE201A69EB0109CA
:107AA000012879F1000318DBB0F5350F13D3FFF788
:107AB0005DFF1C4A02441C484FF49603002100F06D
:107AC000E1F890B92B6813B9304600F0B3F82F6095
:107AD00003B0BDE8F0832246EDE71348002100F033
:107AE00056F93846FFF750FE01E00D28F9D0002383
:107AF0002B6074E7074B1B68002BE9D1304603B0BD
:107B0000BDE8F04300F09AB8084B01221A7093E7E1
:107B1000D82B0020582C0020502C00203C2C00207A
:107B2000B49C0200FFFFB400082B0020E02B0020D3
:107B300070B5EFF3108672B60C4A946801239CB9B5
:107B400093600B4B0B4DD3F8801029401160C3F8A4
:107B50008050D3F8841051604FF0FF32C3F8842076
:107B6000047006B962B670BD0370FAE75C2C0020A1
:107B700000E100E0FC06FFBD084B9A6810B55AB161
:107B800050B9EFF3108172B6054A1C6814605C6846
:107B90005460986001B962B610BD00BF5C2C002033
:107BA00000E100E0435882B03BB10023435043580A
:107BB0000193019B012002B070471846FBE70000CB
:107BC00070B5184C4379184D44F8232005EBC303D6
:107BD0001B792BBB03680A88C3F8082590F9044079
:107BE0008B7802795B01002CDBB214DB0F490E1994
:107BF00086F800330123640902F01F0203FA02F23F
:107C000041F82420437905EBC302012145F83300F4
:107C10001171002070BD064902F00F028B54F1E78C
:107C20000820F7E7702C0020682C002000E100E01D
:107C300014ED00E0036801221A6070470368012216
:107C40005A60704773B501F15005AD000068ADB2E0
:107C50004FF480348C400026C0F80843C0F84843F5
:107C6000465101F5A8714559019522F07F42019DC9
:107C700040F82120C0F844430BB1C0F8044302B0DF
:107C800070BD00002DE9F74F0D4622F07F440268D9
:107C90004FF4803705F150068F408046B60002EB66
:107CA0008500C2F84873B6B2C2F80873D2F804155A
:107CB00099464FF0000BD0F84035C0F8401542F817
:107CC00006B05B1A9259009223F07F43012B009A71
:107CD0004FEA850A0CD1264B4FF4806043F0010334
:107CE0009847D8F8003043F806B09B590193019BA0
:107CF000D8F80010D1F80465C1F84473A31B23F031
:107D00007F43012B1CD11A4B05F5A875013443F0B4
:107D1000010341F825404FF480609847D8F80030BF
:107D2000D3F804359E4209D1D8F800300020C3F8BA
:107D30004473C3F8047303B0BDE8F08F0D20FAE775
:107D40008A44C9F1FF13CAF84045D1F80405221A44
:107D5000013A22F07F4203F57F439342EED3002A9B
:107D6000E2D10134CAF84045D1F804359842DAE747
:107D7000C09C020003680222C3F8442309B1C3F87F
:107D80000423704700684FF48271FFF70BBF4FF474
:107D9000803303FA01F10368C3F84813C3F80813EA
:107DA000704750318900006889B2FFF7FBBE036855
:107DB000D3F804057047000090F90430002B09DB6C
:107DC0005A09012103F01F0301FA03F3403202496B
:107DD00041F82230704700BF00E100E0024B034A47
:107DE0001B681068184700BF702C0020682C00200A
:107DF00010B561B1B2FBF3F403FB1424A4B244B98F
:107E0000C0E9001484608281C381204610BD0E2029
:107E1000FCE70920FAE737B550E8013F9DB2C48975
:107E200025448489A54228BF2D1B0489A54202BF91
:107E3000BFF32F8F002207E0C5EA030540E8015495
:107E4000002CE9D14FF001028DF803200193019A33
:107E50000A609DF8031001F0FF0321B1006810FAD9
:107E600082F003B030BD1846FBE70A884B889A427F
:107E700009D150E8012FC2EA024240E80123002B59
:107E8000F7D1012070470020704737B550E8023F16
:107E90001FFAA3F5C488A54202BFBFF32F8F0022AB
:107EA0000DE0C48925448489A54228BF2D1BC3EA5F
:107EB000054540E80254002CE8D14FF001028DF84E
:107EC00003200193019A0A609DF8031001F0FF035B
:107ED00021B1006800EB124003B030BD1846FBE74B
:107EE0000A884B889A4209D150E8022FC2EA2242FE
:107EF00040E80223002BF7D1012070470020704793
:107F000001F01F024B090121914000EB830000F0BA
:107F100013B801F01F0301229A404B0900EB8300C4
:107F2000D14300F015B84B0901F01F0150F82300B0
:107F3000C84000F00100704710B5034653E8002F19
:107F400042EA010043E8000494F0000FF6D110BDAE
:107F500010B5034653E8002F02EA010043E800048D
:107F600094F0000FF6D110BD064B10B500241C7024
:107F7000054B1C60BFF35F8F0449054800F00AF809
:107F8000204610BD7C2C0020802C0020C89C0200C4
:107F9000742C00200B684A684360934208BF00239A
:107FA000016008BF43607047436843B1026891684D
:107FB00052680B449342436004BF00234360704700
:107FC00070B5446806460D46206818B1B368294666
:107FD000984718B923682B60256070BD2468F3E7C3
:107FE0004368186808B102681A60704743681868E7
:107FF00070474368186800B97047884203D1026827
:108000001A600120704703460068F4E74FF0805380
:10801000D3F83001A0F10D035842584170470000D9
:10802000024AD2F80034002BFBD0704700E0014038
:1080300010B5FFF7EBFF40B14FF080430022C3F8CB
:108040000C21C3F81021C3F83825FFF7DFFF002803
:1080500046D04FF08052514BD2F80414C3F820158B
:10806000D2F80814C3F82415D2F80C14C3F8281554
:10807000D2F81014C3F82C15D2F81414C3F8301524
:10808000D2F81814C3F83415D2F81C14C3F84015EC
:10809000D2F82014C3F84415D2F82414C3F84815B4
:1080A000D2F82814C3F84C15D2F82C14C3F8501584
:1080B000D2F83014C3F85415D2F83414C3F860154C
:1080C000D2F83814C3F86415D2F83C14C3F8681514
:1080D000D2F84014C3F86C15D2F84424C3F87025C4
:1080E000FFF794FF48B14FF08043D3F80024D20744
:1080F00044BF6FF00102C3F80024294AD2F8883047
:1081000043F47003C2F88830BFF34F8FBFF36F8F13
:108110004FF08053D3F830210D2A0ED1D3F83431EB
:10812000022B02D81F4AD35C3BB14FF01023D3F887
:1081300008224FF08043C3F858254FF01023D3F89E
:108140000022002A03DBD3F80432002B22DA16497E
:1081500001234FF01020C1F804351224FFF760FF0F
:10816000C0F80042FFF75CFFC0F80442FFF758FF79
:108170000023C1F80435FFF753FFBFF34F8F0849C1
:108180000A4BCA6802F4E0621343CB60BFF34F8F1F
:1081900000BFFDE7064B074A1A6010BD00C0004053
:1081A00000ED00E0D49C020000E001400400FA056C
:1081B000102B00200090D003074B1B5C1F2B8ABFA5
:1081C000064A4FF0A04203F01F03D2F80405D8403E
:1081D000C04300F001007047D79C0200000300502C
:1081E000074B1B5C1F2B86BF064903F01F034FF094
:1081F000A041012202FA03F3C1F80C35704700BF19
:10820000D79C020000030050074B1B5C1F2B86BF4E
:10821000064903F01F034FF0A041012202FA03F3C5
:10822000C1F80835704700BFD79C0200000300501A
:1082300008B50020FFF7E8FF0120FFF7E5FF022067
:10824000FFF7E2FFBDE808400320FFF7DDBF08B5F8
:108250000020FFF7C5FF0120FFF7C2FF0220FFF754
:10826000BFFFBDE808400320FFF7BABF0A4B185C08
:108270001F288ABF094B4FF0A04300F01F00D3F81E
:1082800004250121814021EA02000A40C3F80805C3
:10829000C3F80C25704700BFD79C020000030050B4
:1082A0000B2809D00C2809D0182809D019280CBF90
:1082B00003204FF0FF3070470020704701207047C7
:1082C00002207047C20710B504460CD54FF0A043FA
:1082D0000322C3F83427C3F83827C3F83C27C3F870
:1082E0004027FFF7A5FFA3070AD54FF0A0430C22B4
:1082F000C3F82C27C3F83027C3F86027C3F86427D6
:1083000010BD000038B5074C051E04F1080318BF66
:108310001C4623682BB11A6822605B682846984780
:10832000F7E738BD8C2C002020B9054B01225A708C
:10833000FFF7E8BF012802D1014A9070F8E77047C3
:10834000842C002020B9034B01225A70FFF7DABFBA
:10835000704700BF842C002038B50E4C2378B3B989
:108360000D486360A3602361E36000F075F8054683
:1083700001F0D4FA08B900F07BF801232370074B11
:10838000D3F800340BB10123A370284638BD8525EE
:10839000F5E700BF842C0020298302000000014083
:1083A00037B50D4C00230DF107008DF80730FFF7AE
:1083B000BFFBE368013BE360E36833B9074BD3F8E5
:1083C000005415B900F066F8A5709DF80700FFF796
:1083D000D3FB03B030BD00BF842C0020000001405F
:1083E000012813B50CD0032820D038B9134B012233
:1083F000C3F88020BFF34F8FBFF36F8F02B010BD63
:108400000F4C00230DF107008DF80730FFF790FBAC
:1084100023780BB9FFF7A0FFE3689DF8070001334D
:10842000E3600123A370FFF7A7FBE7E700F020F864
:1084300002B0BDE81040FFF7B3BF00BF00E100E0AD
:10844000842C002000F18040002382B00360036888
:108450000193019B02B07047044A137923B90121AB
:10846000106011711846704785207047982C0020C5
:10847000074B1A68D20704D4C02283F800230122D4
:108480001A604FF080430122C3F81825704700BFDF
:1084900000E100E04FF0804208B50223C2F8083343
:1084A0004FF48270FFF7CEFF0123D360D2F8183467
:1084B000DB03FBD408BD00004FF0804210B5D2F8BA
:1084C000003153B14FF48070FFF7BCFF0123C2F8B5
:1084D00008330B4B00201B6898474FF08042D2F8BE
:1084E000043163B14FF48270FFF7ACFF0223C2F88E
:1084F0000833034BBDE810401B680120184710BD2E
:10850000982C002000F1804000F5C040002382B08C
:10851000036003680193019B02B0704703681F2B3F
:1085200083BF03F01F03036001484FF0A040704772
:108530000003005007B5019001A8FFF7EFFF019B72
:1085400000EB8300D0F8003723F44033C0F8003745
:10855000D0F8003743EA0141C0F8001703B05DF8D6
:1085600004FB0000054B4FF0FF32072843F82020A2
:1085700084BFC01880F85220704700BFA02C002094
:1085800038B51E4C94F86430ABBB40F2FF31FF208D
:108590005A09012A0CBF0A464FF0FF3203F01F05AB
:1085A000EA40D20748BFE21803F1010348BF82F84E
:1085B00030002A2BECD10021C8B20131FFF7D2FFE5
:1085C0000C29F9D1062200210D4801F01FFB0D4BAB
:1085D000C02283F8062340221A604FF4BE70FFF7D2
:1085E00091FF094B4FF00042C3F80423012384F8A4
:1085F0006430002038BD0820FCE700BFA02C00201C
:10860000FE2C002000E100E000600040034B93F8E6
:108610006400003818BF0120704700BFA02C002064
:10862000F7B53D4F3B18044693F93030002B71DA13
:108630008B78C3F34003002B0BBF082500250C20CB
:108640000820854202D1042003B0F0BD57F8256010
:10865000013647D138196EB247F8252080F83060CE
:1086600013B97B1983F852408B785A071AD4D8076C
:108670003AD501A80194FFF751FF019B00EB83005D
:10868000D0F8003723F00203C0F800372348E2088F
:1086900004F0070C012303FA0CF310F802C043EABC
:1086A0000C03835488780B7810F0020028D0AD00BA
:1086B00005F1804505F5C0452402D5F8102522F4C2
:1086C0004F3222F44072C5F810251B04D5F810254E
:1086D00004F47C5403F440331C431443C5F81045A0
:1086E0000020B1E70135ACE701A84A780194FFF713
:1086F00015FF019B03F5E073920040F82320C5E7C6
:10870000083E47FA86F797F85A4044EA831387F8F9
:108710005A3099E7082097E7A02C0020FE2C002073
:1087200073B5244D2E18044696F93020072A1DDD16
:10873000083A45FA82F595F85A309B09032B10D177
:10874000019001A8FFF7EAFE019BD0F81015D9406F
:1087500001F001010231204602B0BDE87040FFF790
:10876000E9BE012B0CBF02210321F4E7D3B2072B92
:108770001DD8930003F1804303F5C043D3F81005DF
:1087800040F00100C3F8100502F1400040B2800043
:1087900080B2FFF7B7FE51B196F9303055F823306B
:1087A0002BB1012303FA02F2034BC3F8042302B0F6
:1087B00070BD00BFA02C00200060004007B50190F4
:1087C00001A8FFF7ABFE019BD0F81005D84000F0E0
:1087D000010003B05DF804FB2DE9FF470024CDE95B
:1087E0000244584D4FF48072012102F1804303F599
:1087F000C04390B21B68012B06D1D5F804330B425D
:1088000002D0FFF77FFE0C430432B2F5907F4FEAAF
:108810004101EAD14B4BD3F87C31012B11D14FF4FC
:10882000BE70FFF76FFE4FF0A04344F00044D3F852
:1088300020250292C3F82025D3F820280392C3F8FC
:108840002028E3B2D3B1404F01260025344210D096
:10885000AB0003F1804303F5C043D3F81005D3F810
:10886000101557F8253023B1C1F30141C0F305209D
:1088700098470135082D4FEA4606E7D1002C59DA12
:10888000314D324C324E4FF00008012716F9013BB2
:108890005A1C3CD0C3F3C20104A801445FFA83F917
:1088A00011F8081C03F03F0203F0070307FA03F373
:1088B00019422CD001A80192FFF730FE019B03F56D
:1088C000E07350F82330C3F3014ABAF1020F0CBF32
:1088D000032102211046FFF72DFE01A80192FFF7A8
:1088E0001DFE019B07FA03F3C0F82035AB1893F97E
:1088F000303055F8233053B14FEA9911032904D091
:10890000BAF1020F19D1012901D11046984708F197
:108910000108B8F1040FB9D14FF0A043D3F82025D6
:108920000292C3F82025D4F820350393C4F82035EB
:108930001343A7D104B0BDE8F087BAF1030FE6D125
:108940000229E1E700600040A02C00200003005055
:10895000FA2C0020014B1B68184700BF082D00208F
:108960000220FFF783BC00002DE9F04780460D464A
:10897000FFF796FC0328044610D8012D10D0022DD5
:1089800030D05DB91A48FEF7C9FF1A4B04EB440218
:1089900013449D78184B1B5DAB4219D0BDE8F0879E
:1089A000144E00EB4003F218F55C5378470053B1C6
:1089B000DFF84C900E484A464FF48041FEF780FFA6
:1089C00008B989F8008027443E440B4BB2781A5509
:1089D000002DE3D0094B1B68002BDFD02846BDE8F3
:1089E000F047184700EB4004024804446578EFE77D
:1089F000382B0020122D00202D2D0020282D0020A6
:108A0000102D002000780221FFF7AEBF08B5094BFA
:108A10001B7853B10020FFF7F7FB0120FFF7F4FBB1
:108A2000BDE808400320FFF7EFBBBDE80840FFF7B3
:108A3000FFBB00BF112D0020F8B57A4C2378054606
:108A40001BB100232370FFF7E1FF172D00F2878091
:108A5000DFE805F00C1717425364757F878C878C0D
:108A6000949999999999C3C8D0D8E3E3FFF7CEFFB9
:108A70006D48FEF753FF6D4B002204461A702046E6
:108A8000F8BD0020FFF798FBF0B10020FFF7BCFB1A
:108A9000022D0CBF4FF4E1644FF47A64634B1D70F8
:108AA00000254FF400464FF47A7029464FF4FA62DD
:108AB0000023E4FB060101F019F82A460146BDE84F
:108AC000F8405948FEF7FCBEFFF78AFB022D0CBFA9
:108AD000C8244FF4C874E1E70020FFF76DFB40B1F4
:108AE0000020FFF791FB4FF44874504B03221A709B
:108AF000D6E7FFF775FBC824F7E70020FFF75CFB1C
:108B000038B10020FFF780FB4FF47A64474B042212
:108B1000EDE7FFF765FB4FF4C874F7E70020FFF7B8
:108B20004BFB48B10020FFF76FFB404B05221A704A
:108B300040F6CD410022C2E7FFF752FBF5E70020E7
:108B4000FFF794FB394B06221A70002240F266614F
:108B5000B5E70020FFF744FB344B07221A700024CE
:108B60008DE701202070FFF781FBEEE701202070E8
:108B7000FFF77CFB00224FF40051A0E7FFF767FBF3
:108B80002A4B0C22EAE72A482A4EFEF7C7FED5F107
:108B9000110504461CD0D8B9012D13D0C820454377
:108BA00021464FF400474FF47A704FF4FA620023E5
:108BB000C5FB070100F09AFF224601461C48FEF75C
:108BC0007FFE04460220FFF70BFB0123337056E7BC
:108BD0000220FFF719FB0023F8E7FFF717FF134BFD
:108BE0001222BBE7FFF712FF0020FFF7F9FA0F4B45
:108BF0001322B3E7FFF70AFF0120FFF7F1FA0B4B4F
:108C00001422ABE7FFF702FF0020FFF7E9FA01208B
:108C1000FFF7E6FA054B1522A0E7FFF718FB034B19
:108C20001D709CE7242D0020582B00202C2D0020A7
:108C3000182B0020112D0020044B1B68DB0703D5E7
:108C4000034B1878FFF7F8BE704700BF202D0020B7
:108C50002C2D0020044B1B6813F0010301D0FFF7FB
:108C6000EBBE1846704700BF202D002038B51C4BC6
:108C700018601C4B10F00204054619601AD01A4BFC
:108C80001A480E221A700F22DA7010229A711122DD
:108C90005A72042140F23332FEF79EFC044648B972
:108CA000FEF7F2FC044628B90146114A1148FEF7C6
:108CB000F5FD0446EB0711D50120FFF703FB6CB966
:108CC00021460D4A0D48FEF7E9FD044630B9BDE8DE
:108CD00038400B4A0B480121FEF7E0BD204638BD65
:108CE000202D0020282D0020122D0020DC9C0200C9
:108CF000058A0200009D0200398C0200049D0200DA
:108D000061890200FC9C0200032811D8012A0AD1C3
:108D100001290FD100F10E02D2B20D4B00EB400041
:108D20001A54002070470129F7D0022904D049B114
:108D3000072070470022F8E7054B00EB400018447D
:108D40004270EEE7024B00EB400018448270E8E707
:108D5000122D002008B5012202210020FFF7D4FFC8
:108D600008B1072810D1072202210120FFF7CCFF0C
:108D700008B1072808D100210A220846FFF7C4FFDE
:108D800010B1072808BF002008BD00000388102B81
:108D900010B502D0112B1ED010BD1A4C2168B1B9EC
:108DA00001220846FFF7B0FF08B1072824D10722A7
:108DB00002210120FFF7A8FF08B107281CD10422D7
:108DC00002210020FFF7A0FF08B1072814D1236873
:108DD00001332360E0E70B4A1368013B1360002B6B
:108DE000DAD1FFF7B7FF0028D6D0074B1B68002B5E
:108DF000D2D0BDE810401847034B1B68002BE6D0CB
:108E00009847E4E7382D0020342D002072DF7047AA
:108E100073DF704774DF704777DF704770B53F4C82
:108E200092B02078FFF7F6FF30F0080301D0FEF78C
:108E300041FC3B4B0293DA7B0132DA735922102357
:108E4000ADF8002000213C2203A8ADF8043000F06A
:108E5000DDFE344ACDF830D000238DF80C3052F8C6
:108E6000041B062303A88DF80F3000F09DF908B10C
:108E7000FEF720FC2B4929480022FFF7C7FF08B165
:108E8000FEF718FC284E294B3278012A32D10521F1
:108E900019705A759A752349244A2048FFF7B6FF7E
:108EA00008B1FEF707FC224D217895F9002001203A
:108EB000FFF7B2FF08B1FEF7FDFB20780121FFF7B5
:108EC000A7FF08B1FEF7F6FB0220FFF7C3FE08B1CB
:108ED000FEF7F0FB3378042B10D10220FFF780F966
:108EE00095F90030042B0FD1032012B0BDE870407B
:108EF000FFF776B9042ACCD10A21C9E7012BEFD1BB
:108F00000220FFF781F9EBE7082B05D1032012B00F
:108F1000BDE87040FFF778B912B070BD9C2B0020FF
:108F2000542D00208C2B0020882B00203C2D00206D
:108F3000892B0020012914D10B2806D1094B1A785E
:108F4000042A0CD11970FFF769BF0C28FBD1064B1E
:108F500093F90020042A02D108221A70F3E70422B0
:108F6000FBE77047882B0020892B002000B54FF0CD
:108F70008043012293B0C3F87825FEF75DFC08B169
:108F8000FEF798FB00210120FFF770FE08B1FEF705
:108F900091FBFEF7E9FF08B1FEF78CFB00F080FCC7
:108FA00008B1FEF787FB002303A90120039300F01B
:108FB00009FD08B1FEF77EFB03A800F06BFD08B1C8
:108FC000FEF778FB5923ADF80030324B324CDA7B98
:108FD00002930132DA73002110233C2203A8ADF87A
:108FE000043000F013FE06230021182220468DF8DD
:108FF0000F308DF80C10CDF830D000F007FE274B65
:109000001B78012B41D1052222700022626022755B
:10901000A281234A63754FF44861A16003A852F806
:10902000041BA37500F0C0F808B1FEF743FB1A4A11
:109030001B491C48FFF7EAFE08B1FEF73BFB1A4B41
:1090400093F90020174B01201978FFF7E5FE08B1CE
:10905000FEF730FB154840F233320221FEF7BCFA2E
:1090600008B1FEF727FBFEF70FFB08B1FEF722FB66
:109070000F4C44F00104FFF7D1FE4FF4FA654FF4B2
:109080007A40A047013DFAD1F5E7042BBDD10A2271
:10909000BAE700BF542D00203C2D0020882B002073
:1090A0008C2B00209C2B0020892B0020782B00206B
:1090B000109D02006DDF704779DF70477DDF7047DC
:1090C00064DF70472DE9F04F85B000250E9CBDF898
:1090D0003CB0B4F800A00191074690461E46A94650
:1090E0003A884A450DDC45B12388013BA3EB0A03CE
:1090F0009BB2FF2B3AD806F80A30002005B0BDE835
:10910000F08F7A6852F82900039000220DF10B01CC
:1091100003A8FFF7D5FF0028F0D19DF80B204245AA
:1091200021D12288002D14BF0020022002EB08016B
:10913000014459451ADC3DB9013292B2019B2280AB
:10914000B35422880132228022880DF10B0132446F
:1091500003A8FFF7B5FF0028D0D121889DF80B2088
:109160000A442280012509F10109B9E70C20C5E76D
:109170002DE9F341089FBDF824801546CDE900781C
:10918000022204461E46FFF79DFF50B933461022C7
:1091900029462046CDE9087802B0BDE8F041FFF746
:1091A00091BF02B0BDE8F0812DE9F04F0023178890
:1091B000138090F82D3085B006460D46144653B303
:1091C000082F01D80C2027E102A8FFF773FF002821
:1091D00040F0228123880822EA54238801339BB27D
:1091E0001B222380EA542088013080B2208006228E
:1091F0000DF10901284400F0E0FC23889DF80820C7
:1092000006339BB212F0FE0218BF01222380EA54FB
:10921000238801332380B378FBB123880433BB4216
:10922000D0D802A8FFF748FF002840F0F580238837
:109230000322EA54238801339BB219222380EA5483
:109240002388BDF8082001339BB2E9182380EA5433
:10925000120A4A70238802332380F2789AB1238855
:10926000D91CB942AED80221E954238801339BB2FC
:1092700001212380E95423880B449BB22380EA54C4
:1092800023880B4423807268AAB12388D91CB94271
:1092900098D8022192F90020E954238801339BB227
:1092A0000A212380E954238801339BB22380EA54A6
:1092B0002388013323803389002B40F0A180338A37
:1092C0005BB1CDE900472B460722032106F11000D0
:1092D000FFF74EFF002840F09F80338B5BB1CDE954
:1092E00000472B461522142106F11800FFF740FF16
:1092F000002840F09180326A002A40F09080D6F831
:109300002480B8F1000F30D0B8F804302188981CC0
:109310008A1C0244BA423FF655AFFE283FF652AFD0
:1093200003336B54238801339BB2FF222380EA541A
:10933000238801339BB22380B8F80020EA54E9184F
:10934000120A4A702088023080B22080B8F80420C7
:109350005AB1D8F8081000296BD0284400F02DFC31
:109360002388B8F804201344238096F82C30002B6F
:1093700040F09880307800284ED03388012B58D0A8
:10938000228802F1020CBC453FF61CAF012805D132
:109390007378023313449F42FFF414AF023FBF1AA5
:1093A000BFB202A905EB0C00ADF80870FFF786FE0E
:1093B00090BB3178BDF80830022900F0B98072788E
:1093C0009A4202D39F4280F0B180012940F0B280DE
:1093D000974293B2C0F0AE80ADF808300821BDF8D6
:1093E0000830FE2B3FF6EEAE22880133AB542288C4
:1093F000013292B22280A9542288134423800BE0C8
:10940000CDE900472B460622022106F10800FFF7AE
:10941000AFFE00283FF453AF05B0BDE8F08FB4F8BD
:1094200000C00CF10603BB423FF6CCAE1188052903
:1094300001D80720F0E76FF4486E01EB0E039BB2F2
:109440004FF27D3E7345F4D95388052BF1D96FF463
:109450004860181880B27045EBD94FF6FF70814212
:1094600001D09942E5D8052305F80C302388013353
:109470009BB212212380E954238801339BB22380BD
:109480001188E954E818090A4170238802339BB215
:1094900023805288EA54E918120A4A70238802335A
:1094A00023802CE7B36A002BC3D04FF000084FF0A5
:1094B0000C0A4FF0160BB16A5FFA88F20AFB02F24F
:1094C00001EB0209B9F80430981CFE283FF67AAE89
:1094D000208803332B54238801339BB2238005F863
:1094E00003B0238801339BB223808A5AEA54E918D7
:1094F000120A4A702088023080B22080B9F8042015
:109500005AB1D9F80810002993D0284400F055FB2F
:109510002388B9F804201344238096F82C2008F1FE
:1095200001085FFA88F39A42C5D823E7092156E774
:109530009F42FBD2ADF8087050E70000034B1A8839
:1095400082420CBF18460020704700BFA02D0020AB
:10955000024B9B6903B11847704700BF842D002060
:1095600037B50B46497A0F4A79B9D2E901141D7A09
:109570000246002D18BF21465868FEF7A1F978B1C0
:1095800003B0BDE83040FFF7E3BF00211972536913
:1095900033B10122ADF806008DF8042001A89847E8
:1095A00003B030BD842D00204B8802889A4212D827
:1095B00042889A420FD380888B8840F2F311884208
:1095C00094BF021A421A9A4205D80844984234BFFE
:1095D0000020012070470020704700000388122BF4
:1095E00070B5014659D004D8102B1ED0112B44D091
:1095F00070BD502BFCD12F4BC288DB899A42F7D12A
:10960000038A022BF4D186883046FFF797FF054680
:109610000028EDD001F1120000F0F4F838BB6868C2
:10962000FEF77CF90028E3D009E0C37B012BDFD1F2
:109630004FF6FF70FFF782FF054620B90420BDE812
:109640007040FFF785BF1C4A8E8806800023037296
:109650001368C0F80A305368C0F80E3010310A3071
:10966000FFF7A2FF134B6872DB89002BC0D129469C
:109670003046BDE87040FFF773BF8088FFF75EFF9C
:1096800004460028B4D04068FEF748F908B1FFF757
:109690005FFF4FF6FF732380AAE786883046FFF707
:1096A0004DFF05460028A3D008310A30FFF77CFFA4
:1096B0006872DCE7842D0020B42D00200AB1FEF78B
:1096C0001FBCFEF726BC73B50191019C06466CB128
:1096D00000252C46294601A8FEF725FC18B106EB0B
:1096E000440301349D800135142DF3D1304634609C
:1096F00002B070BD2DE9F04703888488103B8CB020
:1097000005460A2B21D8DFE803F006402020202060
:10971000202020654700DFF8E880D8F80830DB43D8
:109720000093D8F804106846FEF712FC009901A8CF
:10973000FFF7C9FF0DF108090027019B9F4207D3DE
:10974000132C12D90420FDF7B5FF0CB0BDE8F0874B
:1097500039F802AB00260136514608EB8600FEF7C9
:10976000D8FB1E2EF7D10137E7E71F482146FEF749
:10977000C7FB1E482146FEF7C3FBEB7B022BE4D15F
:109780001B482146FEF7BCFBDFE7174821460CB01B
:10979000BDE8F047FEF7BDBB027A16483F2A4FEA04
:1097A0001215214694BF00220122FFF787FF022DE8
:1097B00094BF0022012210482146FFF77FFF012DB0
:1097C0000E4894BF0022012221460CB0BDE8F047AC
:1097D000FFF774BF037A002BB7D1427A0548C2F372
:1097E000C0022146F1E700BFC42D0020C02D00209B
:1097F000C82D0020D42D0020D02D0020CC2D0020FD
:10980000BC2D0020008800F00100704710DF704779
:1098100013B5044609496846FEF7BCFB019808B930
:1098200002B010BDD0E900212046904718B168462B
:10983000FEF7BAFBF2E71120F2E700BF1C9D020021
:1098400013B5044607496846FEF7A4FB019B0BB914
:1098500002B010BD2046D3E9002190476846FEF7CC
:10986000A3FBF3E7349D02000B4991F816335A0924
:10987000EC231341DB0706D5084B9A683AB94FF43D
:1098800080030B60704742F20200FDF713BF1A68B5
:1098900042F480021A60704700E100E05C2C002076
:1098A000F7B5194F3C7864BB184E0125204635703A
:1098B000FFF7AEFF112821D02046FFF7C1FF144B60
:1098C0008DF80340186801900DF10300FEF730F9A0
:1098D000104901A8FFF79AFF0446B0FA80F040094A
:1098E00038709DF80300FEF747F93CB90A4B347015
:1098F0001C70FFF7B9FF2846FFF7A2FF204603B010
:10990000F0BD0824FAE700BF392E0020382E0020D1
:10991000169D0200D17602003A2E0020014B1878E5
:10992000704700BF392E002007B508496846FEF78A
:1099300031FB019B13B903B05DF804FBD3E90020B0
:1099400090476846FEF730FBF3E700BF289D020012
:10995000FFF7EABF60DF704769DF704761DF70477C
:1099600030B5134DADF5017D4FF4FA740DF10201E0
:1099700003A8ADF80240FFF7F1FF70B9294601A82E
:10998000FEF708FB029B002BF0D003A8D3E90021CF
:10999000904701A8FEF708FBF4E7052805D00DF570
:1099A000017DBDE83040FDF785BE0DF5017D30BD80
:1099B000409D0200024B1B780BB1FFF7D1BF7047EF
:1099C0003B2E0020F0B5074685B00D4600295DD03E
:1099D0002F4B0B600C22002101A800F017F9012683
:1099E00006232A68ADF8083001A920208DF80470FC
:1099F0008DF80660FFF7B0FF0C22002101A800F0EF
:109A000005F900242A688DF8056001A94020ADF809
:109A10000640FFF7A1FF0C22214601A800F0F6F84E
:109A2000F7232A68ADF8063001A923208DF80470C9
:109A3000FFF792FF0C22214601A800F0E7F82A6800
:109A40008DF8046001A93046FFF786FF0C222146FD
:109A500001A800F0DBF84FF4B0632A68019301A974
:109A6000A120FFF779FF0C22214601A800F0CEF8D3
:109A70009DF804302A6864F3000301A9A0208DF842
:109A80000430FFF769FF204605B0F0BD0E20FBE76C
:109A9000E82A002008B5FFF75DFF10B9014B01224D
:109AA0001A7008BD3B2E00204BDF70471FB50E4CCF
:109AB00001A8FFF7F9FF70B9214602A8FEF76AFA7C
:109AC000039B002BF4D00198D3E90021904702A812
:109AD000FEF76AFAF4E7052804D004B0BDE81040A8
:109AE000FDF7E8BD04B010BD4C9D020053EA020C26
:109AF00061D02DE9F04BB3FA83F51E0007BFB2FA2F
:109B000082F502FA05F403FA05F41646C5F12005BC
:109B10001EBF22FA05F73C43203556EA044C4FEAB3
:109B2000144418BF0134A3464FF00009C8469042C0
:109B300071EB030C39D3094207BFB0FA80F700FA82
:109B400007F6B1FA81F701FA07F6C7F120071EBF41
:109B500020FA07FC46EA0C062037B6FBFBFC7F1B0D
:109B6000103F07F01F04C4F120060CFA04F42CFA8D
:109B700006F644BF34460026202FA4BF2646002404
:109B800054EA060C08BF012418EB040849EB060947
:109B9000A4FB027CC01B06FB02CC04FB03CC71EBD4
:109BA0000C01904271EB030CC5D20B4602464946AC
:109BB0004046BDE8F08BB2FBF3F2844640EA010375
:109BC00013F0030F18D18446202A0BD32DE9F00798
:109BD000B1E8F807A0E8F807A2F12002202AF7D29E
:109BE000BDE8F007042A07D351F8043B40F8043BD2
:109BF000A2F10402042AF7D2002A05D011F8013B91
:109C000000F8013B013AF9D1604670478446002ACA
:109C10002DD010F0030F04D000F8011B013A26D01C
:109C2000F7E7C9B241EA012141EA0141202A12D3F2
:109C3000A2F120022DE9F0030B460C460D460E461C
:109C40000F4688468946A0E8FA03203AFBD2BDE8D1
:109C5000F00320320BD0042A05D340F8041B043A49
:109C600005D0042AF9D200F8011B013AFBD1604665
:049C70007047000039
:089C740045830200000000001E
:109C7C00F5960200000000008D8D0200000000002F
:089C8C00DD950200000000005C
:089C9400E18302000000000062
:109C9C00B599020000000000AD9A0200000000001F
:109CAC00E82A00200100060000000000D42B002050
:109CBC00017702000338FDD870470000949C020025
:109CCC00949C0200040000000000010D0E0F100017
:109CDC000B000300698902000C0003006989020073
:109CEC001800030069890200190003006989020049
:109CFC00182B0020382B0020582B002000000000CF
:109D0C00000000000338FDD8704701000007000078
:109D1C00949C0200949C0200080000009C9C020091
:109D2C00AC9C020008000000949C02009C9C020069
:109D3C00080000007C9C0200949C020008000000BB
:0C9D4C00749C02007C9C020008000000D7
:109D58000000000000000000FFFFFFFFFFFFFFFF03
:109D680000000000000000000000000000000000EB
:109D780000100140110004000090D0030000000012
:109D88000000000000000000FFFFFFFFFFFFFFFFD3
:109D980000000000000000000000000000000000BB
:109DA8000000000000000000FFFFFFFFFFFFFFFFB3
:109DB800000000000000000000000000000000009B
:109DC8000000000000000000FFFFFFFFFFFFFFFF93
:109DD800000000000000000000000000000000007B
:109DE8000B000300358F02000C000300358F0200C2
:109DF80004040000642D00201F0000000000000083
:059E080000000000FF56
:0400000320007375F1
:00000001FF
